:020000040000fa
:080000000002040000000000f2
:020000040000fa
:0400080038030000b9
:020000040000fa
:04000c004a030000a3
:020000040000fa
:040010006203000087
:020000040000fa
:0400140040030000a5
:020000040000fa
:04001800520300008f
:020000040000fa
:04001c005a03000083
:020000040000fa
:040020006a0300006f
:020000040000fa
:04002400840700004d
:020000040000fa
:040028008407000049
:020000040000fa
:04002c008407000045
:020000040000fa
:040030008407000041
:020000040000fa
:04003400840700003d
:020000040000fa
:040038008407000039
:020000040000fa
:04003c008407000035
:020000040000fa
:040040008407000031
:020000040000fa
:04004400840700002d
:020000040000fa
:040048008407000029
:020000040000fa
:04004c008407000025
:020000040000fa
:040050008407000021
:020000040000fa
:04005400c6030000df
:020000040000fa
:04005800720300002f
:020000040000fa
:04005c008407000015
:020000040000fa
:040060008407000011
:020000040000fa
:04006400840700000d
:020000040000fa
:040068008407000009
:020000040000fa
:04006c001a06000070
:020000040000fa
:040070008407000001
:020000040000fa
:0400740084070000fd
:020000040000fa
:04007800fc05000083
:020000040000fa
:04007c00fa02000084
:020000040000fa
:0400800084070000f1
:020000040000fa
:0400840084070000ed
:020000040000fa
:0400880084070000e9
:020000040000fa
:04008c0084070000e5
:020000040000fa
:0400900084070000e1
:020000040000fa
:0400940084070000dd
:020000040000fa
:0400980084070000d9
:020000040000fa
:04009c00000600005a
:020000040000fa
:0400a000ac050000ab
:020000040000fa
:0400a4005a050000f9
:020000040000fa
:0400a80084070000c9
:020000040000fa
:0400ac0084070000c5
:020000040000fa
:0400b00084070000c1
:020000040000fa
:0400b40084070000bd
:020000040000fa
:0400b80084070000b9
:020000040000fa
:0400bc0084070000b5
:020000040000fa
:0400c00084070000b1
:020000040000fa
:0400c40084070000ad
:020000040000fa
:0400c80084070000a9
:020000040000fa
:0400cc0084070000a5
:020000040000fa
:0400d00084070000a1
:020000040000fa
:0400d400840700009d
:020000040000fa
:0400d8008407000099
:020000040000fa
:0400dc008407000095
:020000040000fa
:0400e0008407000091
:020000040000fa
:0400e400840700008d
:020000040000fa
:0400e8008407000089
:020000040000fa
:0400ec008407000085
:020000040000fa
:0400f0008407000081
:020000040000fa
:0400f400840700007d
:020000040000fa
:0400f80014030000ed
:020000040000fa
:0400fc008407000075
:020000040000fa
:040100008407000070
:020000040000fa
:04010400840700006c
:020000040000fa
:040108008407000068
:020000040000fa
:04010c008407000064
:020000040000fa
:040110008407000060
:020000040000fa
:04011400840700005c
:020000040000fa
:040118008407000058
:020000040000fa
:04011c008407000054
:020000040000fa
:040120008407000050
:020000040000fa
:04012400840700004c
:020000040000fa
:040128008407000048
:020000040000fa
:04012c000c040000bf
:020000040000fa
:04013000f2050000d4
:020000040000fa
:04013400840700003c
:020000040000fa
:040138008407000038
:020000040000fa
:04013c008407000034
:020000040000fa
:040140008407000030
:020000040000fa
:04014400840700002c
:020000040000fa
:040148008407000028
:020000040000fa
:04014c008407000024
:020000040000fa
:040150008407000020
:020000040000fa
:04015400840700001c
:020000040000fa
:040158008407000018
:020000040000fa
:04015c008407000014
:020000040000fa
:040160008407000010
:020000040000fa
:04016400840700000c
:020000040000fa
:040168008407000008
:020000040000fa
:04016c00ae040000dd
:020000040000fa
:04017000680400001f
:020000040000fa
:04017400160400006d
:020000040000fa
:0401780084070000f8
:020000040000fa
:04017c0084070000f4
:020000040000fa
:0401800084070000f0
:020000040000fa
:040184005005000022
:020000040000fa
:040188000a05000064
:020000040000fa
:04018c00b8040000b3
:020000040000fa
:0401900084070000e0
:020000040000fa
:0401940084070000dc
:020000040000fa
:0401980084070000d8
:020000040000fa
:04019c0084070000d4
:020000040000fa
:0401a00084070000d0
:020000040000fa
:0401a40084070000cc
:020000040000fa
:0401a80084070000c8
:020000040000fa
:0401ac0084070000c4
:020000040000fa
:0401b00084070000c0
:020000040000fa
:0401b40084070000bc
:020000040000fa
:0401b80084070000b8
:020000040000fa
:0401bc0084070000b4
:020000040000fa
:0401c00084070000b0
:020000040000fa
:0401c40084070000ac
:020000040000fa
:0401c80084070000a8
:020000040000fa
:0401cc0084070000a4
:020000040000fa
:0401d00084070000a0
:020000040000fa
:0401d400840700009c
:020000040000fa
:0401d8008407000098
:020000040000fa
:0401dc008407000094
:020000040000fa
:0401e0008407000090
:020000040000fa
:0401e400840700008c
:020000040000fa
:0401e8008407000088
:020000040000fa
:0401ec008407000084
:020000040000fa
:0401f0008407000080
:020000040000fa
:0401f400840700007c
:020000040000fa
:0401f8008407000078
:020000040000fa
:0401fc008407000074
:020000040000fa
:04020000840700006f
:020000040000fa
:04020400840700006b
:020000040000fa
:040208008407000067
:020000040000fa
:04020c008407000063
:020000040000fa
:04021000840700005f
:020000040000fa
:04021400840700005b
:020000040000fa
:040218008407000057
:020000040000fa
:04021c008407000053
:020000040000fa
:04022000840700004f
:020000040000fa
:04022400840700004b
:020000040000fa
:040228008407000047
:020000040000fa
:04022c008407000043
:020000040000fa
:04023000840700003f
:020000040000fa
:04023400840700003b
:020000040000fa
:040238008407000037
:020000040000fa
:04023c008407000033
:020000040000fa
:04024000840700002f
:020000040000fa
:04024400840700002b
:020000040000fa
:040248008407000027
:020000040000fa
:04024c008407000023
:020000040000fa
:04025000840700001f
:020000040000fa
:04025400840700001b
:020000040000fa
:040258008407000017
:020000040000fa
:04025c008407000013
:020000040000fa
:04026000840700000f
:020000040000fa
:04026400840700000b
:020000040000fa
:040268008407000007
:020000040000fa
:04026c008407000003
:020000040000fa
:0402700084070000ff
:020000040000fa
:0402740084070000fb
:020000040000fa
:0402780084070000f7
:020000040000fa
:04027c0084070000f3
:020000040000fa
:0402800084070000ef
:020000040000fa
:100400004f5a21000eff27000e0188000000000057
:10041000000020000000e000020032000001200087
:100420002002880014000700fb0207000000e00023
:1004300003003a008036220001002000020037004d
:100440000000200001002000810f70000100320038
:100450000f000700000020000000e0000200320052
:100460000000020000000000381902000000000037
:100470000040da000000fe00a00c20000000e000b8
:1004800002003200002020009001880000000600d9
:10049000a1028800800478000000eb001f003700f4
:1004a000e284440054a0b4009905ba00e2844400f8
:1004b00054a0b4009906ba00e284440054a0b400e9
:1004c0000006eb00476fde00fd07b200ae018800ba
:1004d000636ce10003003a000ad801000000eb0061
:1004e0000e003700606ce10008003a00004deb00a0
:1004f0000a05e800020039003420ec000af0a000f0
:100500008b05e900f9ff3e00040037006168e10057
:10051000010032000086eb000b00070019c7ba008b
:100520000e04e0001905ba0003003a000a00e000da
:10053000dbff3a0000000600fe07b200ae028800b2
:100540008a047800f5ff37000cd0a300e20f4d00bd
:100550001c00390089027800354dba000a05e80010
:10056000020039003420ec000af0a0008b05e900fd
:100570000f003200254dba000a05e80002003900dc
:100580003420ec000af0a0008b05e90008003200de
:100590000c00e0000600320015cdba000a05e800a4
:1005a000020039003420ec000af0a0008b05e900bd
:1005b0008984e80054a0b4000b00e000e2ff3a0098
:1005c000000006009902ba00055d78008b05e9007d
:1005d000f7ff3200c82ade00055d78008b05e900d0
:1005e000f3ff32000c00e000f1ff320019ddba0029
:1005f000eeff37003200f8003400f800881f780062
:1006000018002000a8018800082020009801880018
:10061000000000004f04780002a8a9003400f9008f
:100620003200f900004006003600f800809fbe004e
:10063000829fbe00849fbe00869fbe00bd0b070048
:10064000f01921001048e80011c0b3000000e900d3
:10065000014878000688a9004f03be004f02be0083
:100660004f01be004f00be003600f90000400600fa
:100670003600f800c028a9000000eb007d1207003a
:100680003600f80076120700c048a90010002000cc
:10069000781207003600f800c068a900200020008a
:1006a000741207003600f800c088a900300020004e
:1006b000701207003600f800c0a8a9004000200012
:1006c0006c1207003600f800c608a9007000200070
:1006d000681207003600f800c488a900a0002000b6
:1006e00064120700809fbe00821f78000020200057
:1006f0004108210011006000020032002188a90099
:100700001f0037000188a900028480001084800047
:1007100021848000c808de00e1c060000f003700bf
:10072000b080fb0021118800010c2100810f5000d6
:1007300002003a00e0fc2f0001004000820f500050
:1007400005003a0010848800208480000080a10009
:100750000090a000090037008040eb002322ab008e
:10076000efff320010848800e1806000c808dd00df
:10077000208480000080a100008070002084880018
:100780004f0178004f00be0000400600809fbe0071
:10079000821f7800f2838000e08380002184800043
:1007a0008100d100e1c060000e00370031118000ef
:1007b00001587800e1082100810f500001003a0043
:1007c00068805000820f500005003a00e0838800e6
:1007d000208480000010a1000000a0000900370064
:1007e0008040eb002202ab00f0ff3a00e08388007b
:1007f0006180600080004000208480000010a10023
:1008000000807000208488000168a9004f017800f2
:100810004f00be00004006002222ab000100320063
:100820002222a9000828a90000400600809fbe00df
:10083000821f7800002020000114210011006000b8
:10084000020032002a68a9001e0037000a68a900c9
:10085000e2898000f0898000018a8000c808de00fb
:10086000e1c060000e003700b080fb00a1128800dc
:1008700021152100810f500001003a0068805000ce
:10088000820f500005003a00f0898800008a80003d
:100890000080a1000090a000090037008040eb001c
:1008a0005322ab00f0ff3200f0898800e180600045
:1008b000c808dd00008a80000080a1000080700070
:1008c000008a88004f0178004f00be0000400600fb
:1008d000809fbe00821f7800d2898000c08980007e
:1008e000018a80008100d100e1c060000e00370065
:1008f000b112800001587800a1142100810f50002e
:1009000001003a0068805000820f500005003a0054
:10091000c0898800008a80000010a1000000a000ab
:10092000090037008040eb005202ab00f0ff3a00b4
:10093000c08988006180600080004000008a8000db
:100940000010a10000807000008a88000a48a900f9
:100950004f0178004f00be00004006005222ab005d
:10096000010032005222a9000a28a9000040060016
:10097000809fbe00821f780000202000a11521006a
:1009800011006000020032002b28a9001e00370071
:100990000b28a900b28a8000c08a8000d18a80001a
:1009a000c808de00e1c060000e003700b080fb0028
:1009b000a1158800c1162100810f500001003a00e6
:1009c00068805000820f500005003a00c08a8800fd
:1009d000d08a80000080a1000090a00009003700ac
:1009e0008040eb00b322ab00f0ff3200c08a8800e9
:1009f000e1806000c808dd00d08a80000080a1008e
:100a000000807000d08a88004f0178004f00be003f
:100a100000400600809fbe00821f7800a28a8000ee
:100a2000908a8000d18a80008100d100e1c06000fe
:100a30000e003700b11580000158780041162100e2
:100a4000810f500001003a0068805000820f500072
:100a500005003a00908a8800d08a80000010a1002a
:100a60000000a000090037008040eb00b202ab009c
:100a7000f0ff3a00908a88006180600080004000aa
:100a8000d08a80000010a10000807000d08a880009
:100a90000b08a9004f0178004f00be00004006007f
:100aa000b222ab0001003200b222a9000ae8a9007c
:100ab00000400600809fbe00821f780000202000ba
:100ac00041172100110060000200320023e8a90054
:100ad0001e00370003e8a900828b8000908b800005
:100ae000a18b8000c808de00e1c060000e00370066
:100af000b080fb00a111880061182100810f500017
:100b000001003a0068805000820f500005003a0052
:100b1000908b8800a08b80000080a1000090a00036
:100b2000090037008040eb003322ab00f0ff3200b9
:100b3000908b8800e1806000c808dd00a08b8000f9
:100b40000080a10000807000a08b88004f01780019
:100b50004f00be0000400600809fbe00821f78004c
:100b6000728b8000608b8000a18b80008100d1009f
:100b7000e1c060000e003700b1118000015878001c
:100b8000e1172100810f500001003a0068805000f9
:100b9000820f500005003a00608b8800a08b800017
:100ba0000010a1000000a000090037008040eb0009
:100bb0003202ab00f0ff3a00608b88006180600079
:100bc00080004000a08b80000010a1000080700019
:100bd000a08b880003c8a9004f0178004f00be0019
:100be000004006003222ab00010032003222a90090
:100bf0000848a900004006000288a900004006003d
:100c00003600f800809fbe00829fbe00849fbe0019
:100c1000869fbe004e0a070003a8a9004f03be002e
:100c20004f02be004f01be004f00be003600f9006b
:100c3000004006003600f800809fbe00829fbe0084
:100c4000849fbe00869fbe000228a90008e2ab0078
:100c50000700320008e2a9000830ef005080800051
:100c6000200090000008eb000a30ef00a0003700e1
:100c7000408080008000eb00eb0f5000e08f5800b8
:100c800098003e00000601000b00370025003700e9
:100c9000400037005d0037009000370072003700d9
:100ca0007b0037008d0037007d0037008d00370056
:100cb00020003700290037000430ab008c003a00d8
:100cc000108080005080880010417800c100210011
:100cd0008248780090019000738088006600400090
:100ce00010808800c1182100810f500002003a00d6
:100cf0006680500010808800208080000000a100e5
:100d0000208088001180800002808000810f5100c7
:100d100002003a000010a000208088000602a8000f
:100d2000010037000622a800200020004080880033
:100d30006f0037000802e2000a0035009180800051
:100d40000100d100f00fb20010108800b0002000a8
:100d50000108a300f5ff3a002a0037000802e2006c
:100d600003003d000670ec00400020005f003700eb
:100d70000622a800908080004800de006600600027
:100d8000100fb3009080880010c0b30010f0b700bf
:100d9000e5ff370010d0bf00e14f500009003200de
:100da000708080009001780093808800a0009000ff
:100db000a1808800a0419000120121000349780021
:100dc000010037001070ef0090808000f10f2000cc
:100dd000810f5000060036004800de00660060000b
:100de000000fb30010108800a0002000cfff3700d4
:100df000101088000008a3000200320050002000fc
:100e0000caff370030002000c8ff37000802e200a8
:100e100004003d000670ec0009e2a900500020002b
:100e20003200370011d0bf008040e90012012100dc
:100e3000014978000004e00006003a00600020004c
:100e40000e30b4000c50ed000cf0b700b5ff3a00c6
:100e500022003700a0808000b080fb0011108800c5
:100e6000a0808800220037000802e20005003d0053
:100e70000670ec0040002000ac0d070009e2a9005c
:100e80001b0037000662a80080002000a7ff370083
:100e900080002000408088000662a800140037000f
:100ea00001108000a080800001587800a080880098
:100eb0001150ed0011f0b7000400320006a2a900a5
:100ec00060002000408088000200370006a2a800d1
:100ed0008c0d07000682a8000500370020002000c6
:100ee000020037000670ec00600020008f0d070044
:100ef0004f03be004f02be004f01be004f00be00b8
:100f00003600f900004006000040da000000fe0054
:100f10000a00fa00e20f500034003e00108d8000fd
:100f2000e10f500003003200e20f500011003a00c0
:100f30000c003700032220000300e00001003a000b
:100f40000040da002002e200020035002822ef0013
:100f500021e2a8002342ab000d003a002342a80082
:100f60000b003700032320000300e00001003a00db
:100f70000040da003002e200020035003822ef00c3
:100f800031e2a8003342ab0001003a003342a8002e
:100f9000820178000b0037003102fb00e10f5000a6
:100fa00004003a002322ab00feff3a00241188001f
:100fb000030037003322ab00feff3a00a411880083
:100fc0008301e9000300e000f3ff3a00e10f500065
:100fd00003003a002302ab00feff32000b00370093
:100fe0003302ab00feff3200080037003300200060
:100ff000b3bf9f00c0bf9f00d1bf9f00e2bf9f0053
:101000006a805700540307006fb997000200780008
:101010000080fa0000000600000005000c00fa0045
:10102000889fbe0000047800f0ff2700d0bf9f001b
:101030008004eb0099bf9f0088bf9f00a8bf9f005e
:10104000200c2000b0bf9f0078815700cfb09700e0
:1010500070805700160007000fb897000948780005
:101060008fb89700088050004f04be000080fa003f
:101070000000060000017800b141780003597800b3
:101080000304e000fcff3a0000000600d0019000dd
:10109000028151004240a900030034001001780091
:1010a000014978000208e80001007800000006000d
:1010b000f6874700889fbe008a9fbe008c9fbe00b7
:1010c0008e1f780000057800a1b79f000207780006
:1010d0008004eb0092023700afb097008100e80077
:1010e000a1b79f0051c2b300814f500003003a00e6
:1010f000afb097000004eb0011003700ba00900079
:101100000000fb000168a30007003200090178001d
:10111000800078000a007800dcff07000000e00093
:1011200005003a007e0237008a0078008802070036
:10113000e10f40007a0232008904e80078023700ab
:101140000100780031417800d3c2b300834f5100d1
:101150000c00320007003c00edc15100834f5100ec
:101160000a003200ebc14100834f51000d003a00ec
:101170000800370003c3b300834f510009003a0051
:10118000060037000830a000edff37000800a0007f
:10119000ebff37000810a000e9ff37000820a0008f
:1011a000e7ff37000818a300010032000800a10083
:1011b0000838a300010032000820a1008200fb00d3
:1011c0000103b100e98f50000c003e0000017800df
:1011d0008000eb00ea08b900b200fb000103b10097
:1011e00080804000020078009201fb000303b10000
:1011f000e98f5100f7ff3600060037008000eb0052
:10120000a3c2b300834f510002003a00ce00780021
:101210000000e8008005eb00e2c2b300904f11002f
:1012200008003a0008e0a00064415100d04f1100ce
:10123000020032000001780006003700ce05780079
:101240000000e8000001780008003700ea58b90003
:101250008085410002007800b201fb000303b10069
:10126000e98f5100f9ff3600f6ff37003240780071
:10127000a2b79f00c3c6b300834f500025003200c1
:101280000f003c0032c6b300824f5000880032008d
:1012900004003c000004e000260232006b415100d3
:1012a0000f00370042c6b300824f500017003200d3
:1012b00065414100824f500094003a00130037000e
:1012c00032c7b300824f50001b00320007003c00c1
:1012d00064415100824f5000100032000241e8008a
:1012e000824f500089003a000f00370052c7b30008
:1012f000824f50008a00320063414100824f50000b
:1013000082003a00e0df9f0009003700e0df9f0025
:10131000850037000840a000d4ff3700e0df9f00c1
:101320000860a00080003700e0df9f000850a000a8
:101330000870a0007c003700e0df9f004e007800be
:10134000000678000000e00001003a00cc04210013
:101350000c0178000000eb00010037000000e800fd
:10136000800141001304e000fcff3a008006780091
:101370000b00e000030032008d8f550001003100aa
:101380008b0678008005eb008d8f50000100360041
:101390008d855000680464002a003a00110037006f
:1013a0003a0090000068a3000700320009017800ad
:1013b000010220000a00780034ff07000000e0006e
:1013c00006003a00060037008a007800000220007c
:1013d000df010700e10f4000010032008904e8004e
:1013e0008b05e9000b00e000edff3a008085eb0083
:1013f000140037003a0090000068a3000900320092
:101400000c007800b000fb000006780009017800ad
:101410000a0078001dff07000000e00008003a0005
:10142000080037008c0078003100fb0001067800ce
:101430008a007800c6010700e10f40000100320079
:101440008904e8000d0078008006e9000000e00053
:10145000e8ff3a000800e000b10132001100370057
:101460003a0090000068a3000700320009017800ec
:10147000010220000a00780004ff07000000e000dd
:1014800006003a00060037008a00780000022000bb
:10149000af010700e10f4000010032008904e800bd
:1014a0008b05e9000b00e000edff3a009c013700de
:1014b0004e017800cf91de00c81ade004818dd002a
:1014c0004812de0004027000e4df9f000848a30019
:1014d000080032000404e00006003200e14f420040
:1014e00004003200f4df9f0082e79f002d002000ff
:1014f00002003700f2df9f001d002000e2fd2f00f8
:101500000f0141000206e80099ff3700e0df9f006d
:10151000ecfd2f000f0646001d00200094ff370051
:10152000e0df9f00080cb30008017800020cb20055
:10153000700064000200e0000f003a000000e000cc
:1015400004003200640757001e0678009e069000d3
:10155000020037004e067800cfe6de00e00f5600ae
:10156000e08f5e000c003d003800b30060061600fe
:10157000e0861e00080037000000e0000400320092
:10158000640757001e0678009e0690000200370090
:101590004e0678008006eb000b00e00005003a00e4
:1015a0008c8576000bf0a7008b05ea008b05e9001f
:1015b000cf5dde0088017800030cb200e3b79f0026
:1015c00000042000808f51002300320003003c0003
:1015d0000300e000080032002d0037000008200062
:1015e0006fb29700800f52000d003200000c2000f7
:1015f000800f520026003a004205210010c0b300bf
:1016000064014100b20f5600a28f5e001f00390036
:101610000040e800ea4f5000f9ff3a001b00370095
:1016200010c0b3000201200003002000820f56000a
:10163000838f5e0015003900441add00cc11de00f6
:10164000830172004411dd000040e800e84f5000c3
:10165000f6ff3a000d00370010c0b30082002000f2
:1016600003002000820f5600838f5e0007003900c0
:10167000431add00cd11de00830172004311dd004d
:101680000040e800eb4f5000f6ff3a00e0df9f001b
:101690006fd997000200fb008b0f500002003d0045
:1016a000ebdf9f0003003700808f550001003d00f5
:1016b000800578000100e000030032006300640050
:1016c000010032008100e90008e8a30005003200b3
:1016d0008b8f5000020034008b80500001003700d7
:1016e0008000eb00efd997000300fb000002eb0045
:1016f000d4b79f00808f500002003400008050005b
:10170000d0b79f000828a3004000320061016400a8
:101710000818a3000f0032003a0090000068a300f0
:1017200006003200b10220000200e0000100320099
:101730008180e800090178000d003700b002200028
:101740000200e000010032000080e8008a0078001a
:101750000e0037000200e000100032003a00900056
:101760000068a30007003200090178000102200090
:101770000a00780045fe07000000e00006003a007d
:10178000060037008a00780000022000f000070001
:10179000e10f4000010032008904e8005fb09700cb
:1017a0000000e0005a003200bcb79f00cdb79f0098
:1017b000800678003a0090000068a300070032001d
:1017c00009017800010320000a0078002ffe0700bd
:1017d0000000e00006003a00060037008a007800aa
:1017e00000032000da000700e10f40000100320092
:1017f0008904e8008d06e900eeff3a00ddb79f009e
:101800003fb69700cfb6970041003700dfb1970091
:101810000300e0001a0032000838a30018003a0064
:10182000bcb79f00cdb79f00830678003a009000b8
:101830000068a300070032000901780001022000bf
:101840000a00780011fe07000000e00006003a00e0
:10185000060037008a00780000022000bc00070064
:10186000e10f4000010032008904e8008d06e90024
:10187000eeff3a00ddb79f003fb69700cfb6970066
:10188000610164000818a3000f0032003a009000c4
:101890000068a30006003200b10220000200e00050
:1018a000010032008180e800090178000d00370056
:1018b000b00220000200e000010032000080e800d9
:1018c0008a0078000e0037000200e00010003200ad
:1018d0003a0090000068a300070032000901780078
:1018e000010220000a007800e8fd07000000e00087
:1018f00006003a00060037008a0078000002200047
:1019000093000700e10f4000010032008904e80065
:101910000b03e900e331b900b2b79f004233dd00a9
:1019200040052100000343008e01780093b79f001b
:1019300008077800060478005d0037008b05e90091
:10194000000420006fb29700800f5200390032006f
:1019500003003c000400e000080032003f003700b4
:1019600000082000efb09700808f50002100320067
:10197000000c2000808f500038003a000e48a30071
:101980001100320018027800980290000401be0095
:101990000c00be00f4b79f0085bf9f00f000070059
:1019a000e0df9f000000fb00cf80de007fb29700e9
:1019b0008fba97000401be00f90007000006560028
:1019c00081865e00070037001801780011000900c9
:1019d0000286d800a2002000110009000280d80071
:1019e000e1df9f006fd997000243b000e2df9f0064
:1019f0001a003700b00321000e58a3000100320086
:101a0000a002210041052100810054000c01be000c
:101a10008100e900030033008301d1000281d3007b
:101a2000fbff3700ef00610001004000104078002c
:101a3000090037000c00be003fb297000402e90025
:101a4000030033008100d1000080d300fbff37008a
:101a5000674060000043b000e0df9f00ba009000e4
:101a60006fd997000200fb000168a3000700320055
:101a700009017800800078000a00780083fd0700e3
:101a80000000e00005003a00050037008a007800f9
:101a90002f000700e10f4000010032008904e80038
:101aa0003fb2970063025200b4b79f006404540031
:101ab0000b00e000a1ff3a000e0478001fb797006a
:101ac0000838a300160032005fb097000000e00065
:101ad00013003400000478003a0090000068a3006e
:101ae0000700320009017800010220000a00780096
:101af00066fd07000000e00006003a00060037001f
:101b00008a0078000002200011000700e10f400069
:101b1000010032008904e8000804e900eeff3a0001
:101b2000afb0970011407800e0df9f000004e000b4
:101b300069fd3a00090078004f0778004f06be00a3
:101b40004f05be004f04be006f01b100000006004b
:101b5000889fbe0001047800b80090008084eb00ec
:101b60000118a3003a003200180190000198a30068
:101b700002003a000200e00035003a000190a000a7
:101b80003104980080047800f90fb2000200e000f0
:101b900002003a0028009000000c7800ea8f540000
:101ba00005003a000178a30003003a00880078009d
:101bb000d0002000e6ff070018009000d800900039
:101bc000810f50000b0032000000e8001004980064
:101bd0001800780009487800000ce80011c0b30034
:101be0008019210001487800ea8f540018003a005b
:101bf00005003700880078000940780017000700ca
:101c00008004780012003700380090000088a3009c
:101c10000f00320018019000a800900048009000ca
:101c2000bbfc070098009000810f500004003200b8
:101c3000380090000003b300300498008084eb006b
:101c40000000eb001004980028009000000c7800c1
:101c5000090078004f04be00000006000200fa00f0
:101c6000889fbe00a0ff9f0001047800380090000c
:101c70000068a30033003a00e200600005003a006b
:101c80000003b30030049800110498000080eb00ba
:101c90002e003700d80490000900e00006003a004a
:101ca00012002000e68057004800900098fc0700d2
:101cb0001904980023003700a80090000100e000fc
:101cc00008003a00b119210021049800010c7800a5
:101cd0002100200051049800110498000030a00059
:101ce0003004980018019000a8009000480090006f
:101cf00087fc0700280090008080eb00110498000a
:101d0000aff8970001487800000ce8002ff8970022
:101d1000ea4f50000b003a00380090000088a30002
:101d20000800320018019000a800900048009000c0
:101d300077fc07000000eb0010049800a80090005a
:101d4000010c7800aff897000100fb004f04be00c3
:101d50000080fa000000060000c0da000000060063
:101d60006022b800060220000000d0008180d2006e
:101d70000482d2008582d2000000a000020252003c
:101d800083825a00030031000202420083824a002b
:101d90000000a1000603e900f3ff3a00000006007e
:101da000020ab900001bb9000200b800810042001d
:081db000810043000000060061
:020000040000fa
:101db8002530000034750000002500003031000097
:101dc800306c000075000000002500003031000074
:101dd800306c0000640000002530000032750000ff
:101de8003a25000030320000753a00002530000026
:101df8003275000000000000000000000103000030
:101e0800070f00001f1f000000000000101800004e
:101e1800000000001f1f000000000000000100007b
:101e2800030700000f1f0000070f00001f1f00001e
:101e38001f1f00001f1f00001f1f00001f1f0000a2
:101e48001f1f00001f1f0000000000001f1f0000d0
:101e5800000000001f1f0000000000001f1f0000fe
:101e6800000000001f1f000000000000001000001c
:101e7800000000001e1f0000040e00001f040000e8
:101e8800040400000400000004040000040400002e
:101e98001f0e0000040000000e0200000e020000e9
:101ea8000e000000000000000c12000004080000f2
:101eb8001e000000000000000d12000000110000cc
:101ec80019150000130000000e0a00000e000000a3
:101ed8000000000000000000001f00000a040000cd
:101ee80004040000040000001f000000151b00008f
:101ef8001b1b00001b0000004d450000545400004f
:101f080045430000000000005352000054530000f5
:101f18002d41000020760000322e00003000000025
:101f280077770000772e00006d650000747400005c
:101f3800656300002e6300006f6d00002e610000d5
:041f48007200000023
:020000040000fa
:101f4c000c00fa008001eb00a3bf9f00e0f79f009c
:101f5c000000eb00e8cf5000060036001c003700f4
:101f6c00ea8257000082420083024100154a780041
:101f7c008301e8000000e80080cf5000f8ff31003a
:101f8c008140e800ec815700720520006a80570000
:101f9c00b60907002fb897000000e00008003a00cf
:101fac000b003700e50f500002003e00a9030700ac
:101fbc0007003a00ab030700faff3a0004003700b1
:101fcc0002cc250053012000e20f5000f5ff3a002f
:101fdc000080fa00000006000200fa00e0ff9f00fb
:101fec000f81e900a2030700d5ff07000080fa006b
:101ffc00000006000200fa00c0c0b300e0ff9f0022
:10200c000f81e9009a030700cdff07000080fa005a
:10201c00000006000200fa0080c0b300e0ff9f0041
:10202c000f81e90092030700c5ff07000080fa004a
:10203c00000006000200fa0040c0b300e0ff9f0061
:10204c000f81e9008a030700bdff07000080fa003a
:10205c00000006000200fa00880307000f81e90067
:10206c0083030700b6ff07000080fa00000006009b
:10207c000200fa0050c5b300e0ff9f00a0cab300f5
:10208c00f0ff9f000f81e90011c0b30090c0b300b6
:10209c00abff0700e20f500004003a000f01e9000b
:1020ac0011c0b30090c0b300a5ff07000080fa0078
:1020bc00000006000c00fa00889fbe000144780066
:1020cc00820478008000eb0081bf9f00a0f79f0086
:1020dc000000eb00e84f540026003e00f081570052
:1020ec007205200011c0b3006e8057005f09070015
:1020fc000fb897000000e00006003a001d00370002
:10210c00e50f500006003e005203070019003a008c
:10211c0003003700e20f5000030032005a0307009f
:10212c0050030700f6ff3a00f081570072052000bb
:10213c008840780009007800390907000fb897002b
:10214c000000e00006003a000a003700e50f5000de
:10215c0006003e003f03070006003a00030037006c
:10216c00e20f500003003200470307003d03070055
:10217c00f6ff3a004f04be000080fa000000060093
:10218c00881f7800000478000801780038030700e5
:10219c00c8ff0700e20f500005003a001841780014
:1021ac00ec4061008180fb00c208de00014c78002d
:1021bc004f04780000000600000178002c03070093
:1021cc00bcff37000080fb00a200200011000900ba
:1021dc000280d800430020000300dd0001404000d5
:1021ec00000006000081fb004411de00ea11b9007a
:1021fc006f40600002404000000006000600fa003c
:10220c00881f7800010478008000eb00c1bf9f009c
:10221c00a0ff9f00e8815700f206200011c0b30018
:10222c0066805700110907004fb897000000e000c6
:10223c0006003a001d003700e50f500006003e0076
:10224c000403070019003a0003003700e20f5000a6
:10225c00030032000c03070002030700f6ff3a00ec
:10226c00e8815700f206200011c0b3000800780086
:10227c00eb0807004fb897000000e00006003a009a
:10228c000a003700e50f500006003e00f10207007f
:10229c0006003a0003003700e20f50000300320042
:1022ac00f9020700ef020700f6ff3a004f0478002e
:1022bc000080fa000000060012c0b300cfff370008
:1022cc00881f78001203070050c0b300faff070004
:1022dc00e20f500001003a00ed0207004f047800b5
:1022ec0000000600881f7800ec020700f2ff0700d0
:1022fc00e20f500002003a009840780068cc600071
:10230c004f04780000000600881f7800e6020700e2
:10231c00e9ff0700e20f500002003a0001c4b300cd
:10232c0018cc60004f04780000000600881f78006d
:10233c00dd020700e0ff0700e20f500002003a0048
:10234c009840780063cc60004f04780000000600d1
:10235c00881f7800d4020700d7ff0700e20f500057
:10236c0002003a009840780068cc60004f04780076
:10237c0000000600881f7800c8020700ceff070087
:10238c00e20f500001003a00c10207004f04780030
:10239c0000000600881f7800dd0207000040eb00fb
:1023ac00c5ff0700e20f500002003a0001c8b3005d
:1023bc0018cc60004f04780000000600881f7800dd
:1023cc00b9020700bcff0700e20f500002003a0000
:1023dc009840780064cc60004f0478000000060040
:1023ec00881f7800ca02070080c0b300b2ff070044
:1023fc00e20f500002003a0001c8b30018cc600094
:10240c004f04780000000600881f7800c002070007
:10241c0080c0b300a8ff0700e20f500002003a0092
:10242c0001c8b30018cc60004f047800000006000f
:10243c00881f7800990207009fff0700e20f5000e9
:10244c0002003a009840780070cc60004f0478008d
:10245c0000000600881f7800ad020700f0c1b30031
:10246c0095ff0700e20f500002003a0098407800f8
:10247c007fcc60004f0478000000060080007800dc
:10248c00e0c1b3008cff370080007800f0c1b300ce
:10249c0089ff3700881f78009d020700d0c1b30068
:1024ac0085ff0700e20f500007003a0098407800c3
:1024bc000168a300020032007fcc600002003700ec
:1024cc00f2c3b30002cc60004f0478000000060099
:1024dc0080007800c0c1b30077ff3700881f7800f8
:1024ec008b020700d0c1b30073ff0700e20f50004e
:1024fc0001003a00660207004f0478000000060055
:10250c00881f780082020700b0c1b3006aff070081
:10251c00e20f500002003a00984078007fcc600037
:10252c004f0478000000060080007800a0c1b300c2
:10253c0061ff370080007800b0c1b3005eff370048
:10254c00881f78007202070090c1b3005aff070081
:10255c00e20f500007003a00984078000168a30091
:10256c00020032007fcc600002003700f2c3b300df
:10257c0002cc60004f047800000006008000780058
:10258c0080c1b3004cff3700881f78006002070041
:10259c0090c1b30048ff0700e20f500001003a0061
:1025ac003b0207004f047800000006008000780012
:1025bc0060c0b30040ff3700881f7800540207004a
:1025cc0050c0b3003cff0700e20f500002003a007d
:1025dc00984078007fcc60004f0478000000060023
:1025ec008000780040c0b30033ff3700881f7800ac
:1025fc002a02070030ff0700e20f500002003a00e9
:10260c009840780067cc60004f047800000006000a
:10261c00881f78002702070027ff0700e20f5000f1
:10262c0007003a00984078000168a30002003200cd
:10263c007fcc600002003700f2c3b30002cc600014
:10264c004f047800000006008000780010c0b30032
:10265c0019ff3700881f78002d0207000040eb009f
:10266c0015ff0700e20f500001003a001874a1009a
:10267c004f04780000000600881f78000d02070048
:10268c000dff0700e20f500001003a0000020700a6
:10269c004f04780000000600881f78000502070030
:1026ac0005ff0700e20f500002003a0001c4b3001e
:1026bc0018cc60004f047800000006000600fa00f9
:1026cc000001eb00d2bf9f00c0ff9f00914078003b
:1026dc00d1ff9f00e6815700f206200021c0b30015
:1026ec0064805700e10707005fb897000080fa008c
:1026fc00000006000200fa00e1ff9f0012c0b300c8
:10270c008f80e900edff07000080fa000000060052
:10271c000200fa00d90107008f80e90030c0b30035
:10272c00e5fe0700e20f500005003a00eff89700b5
:10273c000134a100e1ff9f0030c0b300edff0700a2
:10274c000080fa00000006000200fa00cb0107002e
:10275c008f80e90030c0b300d7fe0700e20f5000b5
:10276c0005003a00eff897000134a000e1ff9f004c
:10277c0030c0b300dfff07000080fa000000060045
:10278c000200fa00bd0107008f80e90070c0b300a1
:10279c00c9fe0700e20f500002003a00c801070012
:1027ac00d4ff07000080fa00000006000200fa00c7
:1027bc00b20107008f80e90070c0b300befe0700b5
:1027cc00e20f500003003a00c201070070c0b300d2
:1027dc00c8ff07000080fa00000006000200fa00a3
:1027ec00a60107008f80e90070c0b300b2fe07009d
:1027fc00e20f500002003a00b1010700bdff0700d4
:10280c000080fa00000006000200fa009b0107009d
:10281c008f80e90070c0b300a7fe0700e20f5000e4
:10282c0005003a006ff89700ef4060000174a000bb
:10283c00ac010700afff07000080fa0000000600a3
:10284c000200fa008d0107008f80e90070c0b30010
:10285c0099fe0700e20f500004003a00eff89700d1
:10286c000164a1009f010700a2ff07000080fa008d
:10287c00000006000200fa00800107008f80e900ca
:10288c0070c0b3008cfe0700e20f500004003a0049
:10289c00eff897000164a0009201070095ff070074
:1028ac000080fa00000006000200fa007301070025
:1028bc008f80e90070c0b3007ffe0700e20f50006c
:1028cc0003003a008a0107008601070089ff070010
:1028dc000080fa00000006000200fa006701070001
:1028ec008f80e90070c0b30073fe0700e20f500048
:1028fc0004003a007e0107000104a00079010700e2
:10290c007cff07000080fa00000006000200fa00bd
:10291c005a0107008f80e90070c0b30066fe070003
:10292c00e20f500004003a00710107000114a000ee
:10293c006c0107006fff07000080fa000000060022
:10294c000200fa004d0107008f80e90070c0b3004f
:10295c0059fe0700e20f500004003a006ff8970090
:10296c00e34070005f01070062ff07000080fa007f
:10297c00000006000200fa00400107008f80e90009
:10298c0070c0b3004cfe0700e20f500004003a0088
:10299c00eff897000134a1005201070055ff070022
:1029ac000080fa00000006000200fa003301070064
:1029bc008f80e90070c0b3003ffe0700e20f5000ab
:1029cc0004003a00eff897000134a000450107001d
:1029dc0048ff07000080fa00000006000200fa0021
:1029ec00260107000f80e9001aff0700e20f5000d4
:1029fc0005003a00eff897000174a100e1ff9f0079
:102a0c000040eb003bff07000080fa0000000600ce
:102a1c000200fa00190107000f80e9000dff070002
:102a2c00e20f500003003a002a0107000040eb00bf
:102a3c0030ff07000080fa00000006000200fa00d8
:102a4c008f80e90070c0b3001bfe0700e20f50003e
:102a5c0004003a00eff897000124a10021010700bf
:102a6c0024ff07000080fa00000006000200fa00b4
:102a7c008f80e90070c0b3000ffe0700e20f50001a
:102a8c0004003a00eff897000124a000150107009c
:102a9c0018ff07000080fa00000006000200fa0090
:102aac00f60007008f80e90080c0b30002fe07002b
:102abc00e20f500005003a00eff897000174a100f6
:102acc00e1ff9f0080c0b3000aff07000080fa00fe
:102adc00000006000200fa00e80007008f80e90001
:102aec0080c0b300f4fd0700e20f500003003a0071
:102afc00f800070080c0b300fefe07000080fa005b
:102b0c00000006000200fa00881f7800fc00070095
:102b1c00e480570080c0b300e7fd0700e20f5000cf
:102b2c0007003a004ff897000074a100c0ff9f0007
:102b3c000874a1008040740080c0b300edfe070053
:102b4c004f0478000080fa00000006000200fa0032
:102b5c00ca0007008f80e90030c0b300d6fd070023
:102b6c00e20f500003003a00eff8970030c0b300ba
:102b7c00e0fe07000080fa000000060080407800ac
:102b8c0060c0b300dbfe37008040780050c0b3005b
:102b9c00d8fe37008040780040c0b300d5fe370027
:102bac000200fa00881f7800d5000700e480570067
:102bbc0030c0b300c0fd0700e20f500008003a001f
:102bcc0080cfb300cff8970000c06000c0ff9f001b
:102bdc00674464008040740030c0b300c5fe070039
:102bec004f0478000080fa00000006000200fa0092
:102bfc00881f7800c2000700d0ff9f006480570038
:102c0c00a5fe0700e20f500010003a006380570049
:102c1c0099fe0700e20f50000c003a0001c4b3000b
:102c2c004ff99700814f510005003a00dff89700eb
:102c3c000164a0007f44640088c07000020037006b
:102c4c00f2c3b30082406400aafe07004f04780070
:102c5c000080fa00000006008040780010c0b3002d
:102c6c00a4fe37000200fa00881f7800a4000700b9
:102c7c00e480570090fd0700e20f500007003a0077
:102c8c000874a10001c8b3004ff8970081406000a0
:102c9c00814074000040eb0096fe07004f04780062
:102cac000080fa00000006000200fa007300070022
:102cbc008f80e90020c0b3007ffd0700e20f5000b9
:102ccc0005003a00eff89700f145b2000154a0005e
:102cdc00e1ff9f0087fe07000080fa00000006005d
:102cec000200fa00650007008f80e90020c0b300e5
:102cfc0071fd0700e20f500004003a00eff8970056
:102d0c00f145b200e1ff9f007afe07000080fa0057
:102d1c00000006000200fa00881f78007800070007
:102d2c00e480570020c0b30063fd0700e20f5000a1
:102d3c0005003a00cff89700f143b20081407400cf
:102d4c00c1ff9f006bfe07004f0478000080fa0063
:102d5c00000006000200fa00881f780000c2b300d1
:102d6c00c0ff9f001dff070000047800050037001e
:102d7c00648057007ffd070000047800e20f5400c8
:102d8c0018003a004ff897000004e000f8ff3a00f2
:102d9c0090c1b30079ff070030c0b3007aff070081
:102dac0050c2b3007bff07000040eb00adff0700f3
:102dbc0050c0b300a8ff07000040eb00d5ff070090
:102dcc0050c0b30089ff07000040eb004dff070027
:102ddc0040ff070019ff07009efc07004cfe070090
:102dec000bff0700080078004f0478000080fa0001
:102dfc000000060011c0b30030c0b3003dfe070058
:102e0c00e20f500012003a0001c8b30070c0b300ca
:102e1c0038fe0700e20f50000d003a008040eb0036
:102e2c0080c0b30033fe0700e20f500008003a00e8
:102e3c0011c0b300d0c0b3002efe0700e20f50004b
:102e4c0003003a0011c0b30040c1b30029fe0700d3
:102e5c0000000600110020008008dd001103b20004
:102e6c000000060061015100e081590000000600dd
:102e7c0011c0b30000c0eb00000006000040eb00e6
:102e8c00a0ff9f000000060012cc25005301050096
:102e9c0001c2b30018cc6000000006001c00070043
:102eac0030c0b300000006001900070070c0b3006a
:102ebc00000006001600070020c0b300000006004a
:102ecc00aff897000174a100a1ff9f0070c0b30080
:102edc0000000600aff897000174a000a1ff9f004e
:102eec0000000600a1ff9f0070c0b30000000600a8
:102efc00c1cfb3002ff8970081406000000006009e
:102f0c00004478000040eb0080ff9f0000000600aa
:102f1c000004780088007800000006009301070088
:102f2c00a4010700ad010700252ea80000ac2d0060
:102f3c000100200031080700252ea90000ac2d004f
:102f4c00010020002d0837008801070099010700b7
:102f5c00a201070040832000010020002708070081
:102f6c00252ea80040832000010020002308070024
:102f7c00252ea90040832000010020001f083700e7
:102f8c00881f78009c010700e4ff07006f40640075
:102f9c00e2ff07004f04780000000600881f78004d
:102fac0095010700e8ff07006f406400e6ff07008b
:102fbc004f04780000000600881f7800930107007a
:102fcc00d6ff07006f406400d4ff07004f04780061
:102fdc0000000600881f78008c010700daff07004c
:102fec006f406400d8ff07004f0478000000060013
:102ffc0010c0b300e2ff3700889fbe008004780049
:10300c000004eb0001003700f2ff070008804400c9
:10301c00104078000804e8000004e000faff3a00d1
:10302c004f04be000000060042c1b300e3cf5000c5
:10303c000700320042c5b300e4cf50000400320058
:10304c0074415100e2cf5000010032000041eb000e
:10305c000040e900024040000074a000cfff3700a0
:10306c00889fbe0081047800674060000064a00067
:10307c00c3ff07000004eb000880440010407800f8
:10308c00d4ff07000804e80000042000800f54005f
:10309c00f9ff3a004f04be000000060014aea80071
:1030ac00542ea800252ea90000702100110120002b
:1030bc00d207070030c0b30098ff0700007325004b
:1030cc0051002000cd07070030c0b30093ff07006c
:1030dc004090220001002000c807070030c0b30058
:1030ec008eff07000073250051002000c307070066
:1030fc0020c0b30089ff070080c2b300a0ff070007
:10310c0080c0b3009eff070010c0b3009cff0700f7
:10311c0060c0b3009aff0700c0c0b30098ff07005f
:10312c0001f028000040eb00cdff3700889fbe0067
:10313c0040c1b30099ff0700adff070011c0b300f9
:10314c0010c1b300b8ff07000040eb00a1ff07005f
:10315c0010c0b3009fff070021c0b300f0c0b30044
:10316c00b1ff070020c0b3009aff070030c0b300c6
:10317c0098ff070040c0b30096ff070050c0b30093
:10318c0094ff070060c0b30092ff070070c0b3004b
:10319c0090ff0700e8c0b30080c1b3007fff0700b9
:1031ac00007e260051032000940707000844e90024
:1031bc00f9ff3a0011c0b30090c1b3009aff0700a9
:1031cc0000f828008cff070021c0b30070c1b300c9
:1031dc0095ff070080f8280087ff070040c1b30067
:1031ec006eff070041c0b300f0c0b3008eff0700b4
:1031fc000004eb0049f928000880440010407800d6
:10320c0074ff0700007e2600510320007b07070097
:10321c000804e800e60f5400f6ff3a0031c0b30092
:10322c0050c1b30080ff07000004eb00088044008d
:10323c006040900067ff0700007e260051032000cd
:10324c006e0707000804e800eb0f5400f7ff3a0084
:10325c0000d82100c1422000680707004f04be00bf
:10326c0000000600881f78002e070700d205070013
:10327c0024eea90034cea800152ea90034aea90066
:10328c0024cea80085ff0700a8ff070058ff070001
:10329c0060012100defc070070012100eafc070040
:1032ac0080012100ebfc0700c0c0b30034ff070015
:1032bc000003f800c8ed2800881f7800000c2100de
:1032cc0053f7070011c0b3000140780056ff070008
:1032dc00000c210048ff07000203f800881f78004b
:1032ec00000c21004af7070021c0b30010c0b30046
:1032fc004dff0700000c21003fff07000403f800fe
:10330c00881f7800000c210041f7070031c0b30082
:10331c0010c0b30044ff0700000c210036ff07006b
:10332c000603f800881f7800000c210038f707000e
:10333c0041c0b30010c0b3003bff0700000c2100dc
:10334c002dff07004003f800881f7800000c2100b7
:10335c002ff7070011c0b30060c0b30032ff0700a5
:10336c00000c210024ff07004203f800881f78009e
:10337c00000c210026f7070021c0b30060c0b30089
:10338c0029ff0700000c21001bff07004403f80075
:10339c00881f7800000c21001df7070031c0b30016
:1033ac0060c0b30020ff0700000c210012ff0700d3
:1033bc004603f800881f7800000c210014f7070062
:1033cc000f02b10041c0b30060c0b30016ff07008c
:1033dc00000c210008ff0700d0808000e1808000f5
:1033ec00809fbe0010ee2800801f7800000c21008a
:1033fc0007f7070011c0b300b0c0b3000aff070005
:10340c00000c2100fcfe070081ee2800000c2100be
:10341c0015f7070031c0b300b0c0b30002ff0700be
:10342c00000c2100f4fe0700aa050700f0808800bc
:10343c0001818800f080800001818000e6875700c0
:10344c00e00f5000e08f58000700350074000700b3
:10345c00e00f5000e08f580001003d007a0007009b
:10346c000040e800060037006d000700e00f500038
:10347c00e08f580001003d007300070065404000dc
:10348c0022f0b700f080800001818000809fbe0098
:10349c0090ee2800801f7800000c2100dcf607005d
:1034ac0021c0b300b0c0b300dffe0700000c210048
:1034bc00d1fe07002102210091407800a0c0b3008a
:1034cc00d9fe0700f0c0b300adfe070018d0bf0056
:1034dc000080fb00801f780017d0bf000080fb002d
:1034ec00801f780016d0bf000080fb00801f780082
:1034fc0000ef2800801f7800000c2100c4f60700a4
:10350c0031c0b300b0c0b300c7fe0700000c2100ef
:10351c00b9fe070000f82900510d2000b70607007e
:10352c00ee8757005aff3700d0808000e180800082
:10353c0061004000e0804800d0808800e180880075
:10354c000000060021708000c708de008180ea00c0
:10355c00e1806000c708dd00207080000070a100d1
:10356c000080700020708800000006008080fb0046
:10357c00c309de008381ea00e1816100ca19dd0024
:10358c002270800002a0a1000281710022708800cc
:10359c00c209de008381ea00e1816100cc19dd0003
:1035ac00a270800002c0a10002817100a27088008c
:1035bc00000006000101d1000281ea0061016100f6
:1035cc004b11dd00a170800001b0a10081007100e1
:1035dc00a17088008080ea0000000600e180600095
:1035ec00ca08dd00a070800000a0a100008070005f
:1035fc00a07088000000060000447800542ea8003b
:10360c000880fb004400de00000006000044780047
:10361c00542ea9000880fb004400de0000000600c8
:10362c00f08080000181800032002000030028001f
:10363c0000026100018161008201780004017800c0
:10364c000200be000000060061005000e08058003f
:10365c00c2ff2f00f3ff2f00020070008380700068
:10366c0061004000e080480000000600800020005f
:10367c00001188002222ef00700920004011880000
:10368c002168a80021e2a8002342a800e00821003c
:10369c00108488000084880060082100f083880072
:1036ac00e083880041082100110078002020b3003d
:1036bc00e2ef2f008208600000000600f18380001a
:1036cc0031407800f1838800e2082100828f50009d
:1036dc0002003a00e8005100f1838800f283800078
:1036ec00c1072100910f510003003a002184800092
:1036fc000110a00021848800218480000100a10019
:10370c002184880000000600889fbe008a1f780074
:10371c0000047800010578008004eb0008003700f5
:10372c0040082100100078006200600006003a009a
:10373c00e2ff070089004400804878008904e80013
:10374c008a8f5400f6ff3900090078004f05780085
:10375c004f04be00000006002188a90001848000ef
:10376c008058780001848800000c2100808f500064
:10377c0002003a002003b1000084880020848000fd
:10378c000090a10020848800128480000108210090
:10379c00910f510002003a000080a00020848800a4
:1037ac002188a80000000600889fbe008a1f7800b0
:1037bc0000047800010578008004eb000800370055
:1037cc0000102000410821001100600006003a00a2
:1037dc0009004400104078008904e800deff07006f
:1037ec008a8f5400f6ff3900090078004f057800e5
:1037fc004f04be0000000600218480000000eb0096
:10380c000188a30001003200800020000198a30071
:10381c00010032000040a0000108a30001003200aa
:10382c000000a0000118a300020032000020a0003c
:10383c00000006000010a00000000600f2838000cb
:10384c0080004100e3082100838f500006003900fe
:10385c008301500003014100600821000201400077
:10386c0012407800000006001140780000000600ad
:10387c00881f7800000478000041eb00e78f5000af
:10388c001b003e0040082100100078006200600020
:10389c0017003a000800e00015003200f3838000a6
:1038ac0064082100048051000100400067006000a2
:1038bc00e2838000828f510006003100818141003b
:1038cc000202e9000041eb00848f510008003e0029
:1038dc000a003700828f51000800360000024200b7
:1038ec000201e900820f5200040036000041eb0097
:1038fc00024078004f04780000000600cfff07005c
:10390c00004c780012c0b300f9ff370040082100ca
:10391c0010007800e10060000000eb0008003a00a5
:10392c00f0838000e1838000810f5000020036009c
:10393c00010050000000060068004000010050002b
:10394c00000006000110200040082100908060005b
:10395c000000eb0007003a00108480000184800016
:10396c00810f500001003600f1ff37002003b0003a
:10397c000100500000000600208480000000d100ef
:10398c006140600000000600208480004800de00da
:10399c00fbff3700101180000000060080002000a3
:1039ac00801288005222ef0070092000c01288009b
:1039bc002a48a80051e2a8005342a800a0142100f4
:1039cc00f0898800e089880020142100d0898800c3
:1039dc00c089880001142100110078002020b30058
:1039ec00e2ef2f008208600000000600d189800001
:1039fc0031407800d1898800a2142100828f5000b8
:103a0c0002003a00e8005100d1898800d289800078
:103a1c0081132100910f510003003a00018a8000ac
:103a2c000110a000018a8800018a80000100a10019
:103a3c00018a880000000600889fbe008a1f78005b
:103a4c0000047800010578008004eb0008003700c2
:103a5c0000142100100078006200600006003a009b
:103a6c00e2ff070089004400804878008904e800e0
:103a7c008a8f5400f6ff3900090078004f05780052
:103a8c004f04be00000006002a68a900e1898000ee
:103a9c0080587800e189880020152100808f500023
:103aac0002003a0068005000e0898800008a80001b
:103abc000090a100008a8800f2898000c1132100c7
:103acc00910f510002003a000080a000008a88008b
:103adc002a68a80000000600889fbe008a1f780094
:103aec0000047800010578008004eb000800370022
:103afc0000102000011421001100600006003a00a3
:103b0c0009004400104078008904e800deff07003b
:103b1c008a8f5400f6ff3900090078004f057800b1
:103b2c004f04be0000000600018a80000000eb007c
:103b3c000188a30001003200800020000198a3003e
:103b4c00010032000040a0000108a3000100320077
:103b5c000000a0000118a300020032000020a00009
:103b6c00000006000010a00000000600d2898000b2
:103b7c0080004100a3142100838f500006003900ff
:103b8c008301500003014100201421000201400078
:103b9c00124078000000060011407800000006007a
:103bac00881f7800000478000041eb00e78f50007c
:103bbc001b003e0000142100100078006200600021
:103bcc0017003a000800e00015003200d38980008d
:103bdc0024142100048051000100400067006000a3
:103bec00c2898000828f5100060031008181410022
:103bfc000202e9000041eb00848f510008003e00f6
:103c0c000a003700828f5100080036000002420083
:103c1c000201e900820f5200040036000041eb0063
:103c2c00024078004f04780000000600cfff070028
:103c3c00004c780012c0b300f9ff370000142100cb
:103c4c0010007800e10060000000eb0008003a0072
:103c5c00d0898000c1898000810f5000020036009d
:103c6c0001005000000006006800400001005000f8
:103c7c00000006000110200000142100908060005c
:103c8c000000eb0007003a00f0898000e189800019
:103c9c00810f500001003600f1ff37006800400032
:103cac000100500000000600008a80000000d100d6
:103cbc006140600000000600008a80004800de00c1
:103ccc00fbff3700901280000000060080002000ef
:103cdc0080158800b222ef0070092000c015880002
:103cec002b08a800b1e2a800b342a800401621009e
:103cfc00c08a8800b08a8800c0152100a08a88007c
:103d0c00908a8800a1152100110078002020b300b2
:103d1c00e2ef2f008208600000000600a18a8000fc
:103d2c0031407800a18a880042162100828f500011
:103d3c0002003a00e8005100a18a8800a28a8000a3
:103d4c0021152100910f510003003a00d18a800007
:103d5c000110a000d18a8800d18a80000100a10046
:103d6c00d18a880000000600889fbe008a1f780058
:103d7c0000047800010578008004eb00080037008f
:103d8c00a0152100100078006200600006003a00c7
:103d9c00e2ff070089004400804878008904e800ad
:103dac008a8f5400f6ff3900090078004f0578001f
:103dbc004f04be00000006002b28a900b18a800029
:103dcc0080587800b18a8800c0162100808f50007e
:103ddc0002003a0068005000b08a8800d08a800047
:103dec000090a100d08a8800c28a80006115210051
:103dfc00910f510002003a000080a000d08a880088
:103e0c002b28a80000000600889fbe008a1f78009f
:103e1c0000047800010578008004eb0008003700ee
:103e2c0000102000a11521001100600006003a00ce
:103e3c0009004400104078008904e800deff070008
:103e4c008a8f5400f6ff3900090078004f0578007e
:103e5c004f04be0000000600d18a80000000eb0079
:103e6c000188a30001003200800020000198a3000b
:103e7c00010032000040a0000108a3000100320044
:103e8c000000a0000118a300020032000020a000d6
:103e9c00000006000010a00000000600a28a8000ae
:103eac008000410043162100838f5000060039002a
:103ebc008301500003014100c015210002014000a4
:103ecc001240780000000600114078000000060047
:103edc00881f7800000478000041eb00e78f500049
:103eec001b003e00a015210010007800620060004d
:103efc0017003a000800e00015003200a38a800089
:103f0c00c4152100048051000100400067006000ce
:103f1c00928a8000828f510006003100818141001d
:103f2c000202e9000041eb00848f510008003e00c2
:103f3c000a003700828f5100080036000002420050
:103f4c000201e900820f5200040036000041eb0030
:103f5c00024078004f04780000000600cfff0700f5
:103f6c00004c780012c0b300f9ff3700a0152100f7
:103f7c0010007800e10060000000eb0008003a003f
:103f8c00a08a8000918a8000810f500002003600c8
:103f9c0001005000000006006800400001005000c5
:103fac000000060001102000a01521009080600088
:103fbc000000eb0007003a00c08a8000b18a800044
:103fcc00810f500001003600f1ff370068004000ff
:103fdc000100500000000600d08a80000000d100d3
:103fec006140600000000600d08a80004800de00be
:103ffc00fbff3700901580000000060080002000b9
:10400c00801188003222ef0070092000c011880056
:10401c0023c8a80031e2a8003342a800e017210011
:10402c00908b8800808b880060172100708b880033
:10403c00608b880041172100110078002020b3000c
:10404c00e2ef2f008208600000000600718b8000f8
:10405c0031407800718b8800e2172100828f50006c
:10406c0002003a00e8005100718b8800728b8000ce
:10407c00c1162100910f510003003a00a18b800062
:10408c000110a000a18b8800a18b80000100a10071
:10409c00a18b880000000600889fbe008a1f780054
:1040ac0000047800010578008004eb00080037005c
:1040bc0040172100100078006200600006003a00f2
:1040cc00e2ff070089004400804878008904e8007a
:1040dc008a8f5400f6ff3900090078004f057800ec
:1040ec004f04be000000060023e8a900818b80006d
:1040fc0080587800818b880060182100808f5000d8
:10410c0002003a0068005000808b8800a08b800071
:10411c000090a100a08b8800928b800001172100d9
:10412c00910f510002003a000080a000a08b880083
:10413c0023e8a80000000600889fbe008a1f7800b4
:10414c0000047800010578008004eb0008003700bb
:10415c0000102000411721001100600006003a00f9
:10416c0009004400104078008904e800deff0700d5
:10417c008a8f5400f6ff3900090078004f0578004b
:10418c004f04be0000000600a18b80000000eb0075
:10419c000188a30001003200800020000198a300d8
:1041ac00010032000040a0000108a3000100320011
:1041bc000000a0000118a300020032000020a000a3
:1041cc00000006000010a00000000600728b8000aa
:1041dc0080004100e3172100838f50000600390056
:1041ec0083015000030141006017210002014000cf
:1041fc001240780000000600114078000000060014
:10420c00881f7800000478000041eb00e78f500015
:10421c001b003e0040172100100078006200600077
:10422c0017003a000800e00015003200738b800084
:10423c0064172100048051000100400067006000f9
:10424c00628b8000828f5100060031008181410019
:10425c000202e9000041eb00848f510008003e008f
:10426c000a003700828f510008003600000242001d
:10427c000201e900820f5200040036000041eb00fd
:10428c00024078004f04780000000600cfff0700c2
:10429c00004c780012c0b300f9ff37004017210022
:1042ac0010007800e10060000000eb0008003a000c
:1042bc00708b8000618b8000810f500002003600f3
:1042cc000100500000000600680040000100500092
:1042dc0000000600011020004017210090806000b3
:1042ec000000eb0007003a00908b8000818b80006f
:1042fc00810f500001003600f1ff370068004000cc
:10430c000100500000000600a08b80000000d100ce
:10431c006140600000000600a08b80004800de00b9
:10432c00fbff37009011800000000600042eef0008
:10433c0080202000a07088003000200020718800b0
:10434c00342eef00442eef00542eef00000420001a
:10435c002073880030b1210000708800701d2e0081
:10436c0080708800c0d32b000071880000102000e2
:10437c008071880000002f0000728800100020005f
:10438c008072880000382000007388000c2eef002b
:10439c001c2eef002c2eef003c2eef004c2eef00cd
:1043ac005c2eef006c2eef000a2eef001a2eef00a1
:1043bc002a2eef003a2eef004a2eef005a2eef0075
:1043cc006a2eef00062eef00162eef00262eef00c1
:1043dc00362eef00462eef00562eef00662eef0025
:1043ec0030a120007070880030182000f070880018
:1043fc00c083210070718800000023007072880057
:10440c000020200070738800f00b20004207b600db
:10441c00630420007405200032000700f10f28000f
:10442c000035800080806000008023000100700057
:10443c0000358800f10f2c000534800005816000e8
:10444c0000b021000200700000348800a03480000d
:10445c000081600000d0210002007000a0348800b0
:10446c0000f82f00b5368000050160002202b30071
:10447c00b2368800c536800005016000c201b30069
:10448c00c23688002536800005016000e205b300c5
:10449c00223688001535800005016000d203b30078
:1044ac001235880052348000828060000130b300e5
:1044bc005134880001fc2f00553480008580600049
:1044cc000100a00051348800c606b600f005b30008
:1044dc0030368800103a80000060a0000100070010
:1044ec00000006002174200083487800844878007e
:1044fc008048780000000600600020000e30b400f8
:10450c000c50ed000cf0b70002003a004000200007
:10451c0001003700100020004080880000000600d9
:10452c000642a80051808000a10090000100e0002c
:10453c0001003200800878000830ef00000006000f
:10454c00010021006018210090009800800878007c
:10455c00208080000010a0000000a100a0009800a6
:10456c000040eb00e0409800700a2000201088000a
:10457c0000202800301088000822ef000228a90033
:10458c002228a8000000060006d0bf00000006008c
:10459c000410ab001a003a00130020000309780045
:1045ac00038080009101980080497800a201980056
:1045bc00e681410003808800c0182100808f5100e3
:1045cc0002003a00660050000080880020808000c5
:1045dc000010a100208088001180800002808000e3
:1045ec00810f510002003a000000a00020808800da
:1045fc000810e20003003a000228a80000000600a0
:10460c000009eb0000000600838141000300a000bc
:10461c000308780022409800210098000000060052
:10462c00881f7800030478000410ab000a003a00dd
:10463c00820178000141780080007800c0182100c8
:10464c00f1ff070008017800c118210010c0b30069
:10465c00cfff070001003700000ceb004f0478007f
:10466c000000060003884100eaff3700881f78002d
:10467c00030478000410ab000a003a0082017800b1
:10468c00014178008000780020192100f5ff070017
:10469c00080178002119210010c0b300bcff0700ed
:1046ac0001003700000ceb004f04780000000600fe
:1046bc000410d5006100600000000600208080001e
:0446cc00fcff3700b8
:020000040000fa
:1046d00024100000020000008000000026100000ee
:1046e00002000000800000009e1100000200000097
:1046f00080000000a0110000020000008000000007
:1047000018110000200000008000000028100000a8
:104710000200000082000000ffff00007c1000008b
:104720004400000080000000381100001a00000062
:1047300080000000521100001a00000080000000fc
:104740006c1100001a0000008000000086110000bb
:1047500012000000800000000010000016000000a1
:1047600080000000c0100000320000008000000047
:10477000161000000e000000800000002a1000004b
:104780005200000082000000303132003334350026
:104790003637380039414200434445004600300076
:1047a0003132330034353600373839006162630006
:1047b0006465660000286e00756c6c0029000000be
:1047c00001000000000a000000006400000000007a
:1047d000e8030000001027000000a0008601000090
:1047e00040420f000080960098000000e1f50500af
:1047f00000ca9a003b000000f210000026000000f2
:1048000082000000991100000099110009000000c9
:10481000000200009b110000009b11000e0201002d
:10482000000000000000000000000000060202007e
:1048300000000000f21000009811000006000000c7
:1048400080000000a21100000200000082000000b1
:0848500001000000000000005f
:020000040000fa
:1048580000002300203a88004827ef004e27ef0089
:1048680040042000303a88004420a90044c0a90030
:1048780044e0a9004480a900a109200032002000da
:10488800800720003374200080497800814978002f
:104898008249780071052000120020006004200081
:1048a8002374200080497800814978008249780083
:1048b8004207ab00feff3a0000000600003a800005
:1048c800000006004f00de00000006000100240082
:1048d800010060000000ea00faff37004900de002e
:1048e80061006000000006004700de00fcff3700a2
:1048f8004600de00faff37004400de00f8ff37000c
:104908000080ea004007b600003a88000000060070
:10491800881f7800e9ff0700000478000800780085
:10492800e8ff07000004e000020032000000280051
:10493800f3ff070008007800e4ff07000004e00028
:104948000200320000002400edff07000800780094
:10495800e2ff07000004e00002003200002020000f
:10496800e7ff070008007800dfff07000004e00009
:104978000200320000082000e1ff0700080078006c
:10498800dbff07000004e000020032000004200002
:10499800dbff070008007800d7ff07000004e000ed
:1049a8000200320000012000d5ff07004f04780004
:1049b800000006004027ef0000000600f00b200072
:1049c8004207b60061042000720520004900070074
:1049d80000f82f00bc06b6008004b300e03588005c
:1049e800f30f2800e03580008081610000a02300db
:1049f80003007000e0358800103a80000060a000d5
:104a08003c0007006507a8006147a900c1e1a900ab
:104a1800f0cf2f00c021b600c1a1a800f0f82f00e8
:104a2800c021b600f03f2e00c021b600c061a8002a
:104a3800c041a900c0ff2f00c021b600c3c1a80013
:104a4800f07f2c00c201b60000c0a000100e880044
:104a5800f09f2f00c221b600c301a900c2e1a9003e
:104a6800c2c1a900c281a900c2a1a900c3e1a800ce
:104a7800c421ef00e021ef00e221ef00de21ef008a
:104a8800ca21ef00cc21ef00d821ef00d621ef009a
:104a9800ca21ef00c621ef00c1e1a800000006000e
:104aa800510e8800300e880000000600320e80008b
:104ab800510e80000200780000000600fbff37005e
:104ac800faff07004e09dd004200de000000710019
:104ad800c208de0000000600f8ff07000001be0063
:104ae8004e1add004210de0000007200c298de009f
:104af800000006002374200081497800824978006c
:104b08008049780000000600f28f2f0001438000e2
:104b1800010061000080a00000438800f1ff280028
:104b2800734280000380600000c0a00070428800cb
:104b380074428000040061000080a0007042880078
:104b4800f0f82f00444380003700070043438800f3
:104b5800444380008481600003c0a0004343880070
:104b680043438000030161000280a00042438800a3
:104b7800544380000481600002c0a00052438800b2
:104b880063438000030160000240a0006243880084
:104b980082ff2f0064438000840161000300a000ad
:104ba80063438800544280001f0007005342880076
:104bb800044380001c00070003438800344280003f
:104bc800840161000300a000334288002442800071
:104bd8008481600003c0a000234288005442800002
:104be800840161000300a0005342880074428000e1
:104bf8000d000700734288004808b6000040a00076
:104c08004042880040428000000161000200a0008c
:104c180042428800c34280008380600001c0a00037
:104c2800c142880000000600840160000340a00023
:104c3800000006004f00de0000000600010024000e
:104c4800010060000000ea00faff37004900de00ba
:104c580061006000000006004700de00fcff37002e
:104c68004600de00faff37004400de00f8ff370098
:104c78000080ea004007b600003a880000000600fd
:104c8800003a800000000600881f7800fcff07003b
:104c98000004780008007800e6ff07000004e00040
:104ca8000200320000002800f1ff07000800780029
:104cb800e2ff07000004e0000200320000002400c8
:104cc800ebff070008007800e0ff07000004e000a1
:104cd8000200320000202000e5ff070008007800ed
:104ce800ddff07000004e000020032000008200099
:104cf800dfff070008007800d9ff07000004e00084
:104d08000200320000042000d9ff070008007800e4
:104d1800d5ff07000004e000020032000001200077
:104d2800d3ff07004f047800000006004027ef007b
:104d3800000006003421ef00c0422000c0098800ae
:104d48003021ef0000d82100b00988008000280039
:104d5800d00988000688a9002688a800e019210043
:104d68000048eb0000000600b0098800c10988006f
:104d780000000600c0098000b209800080007800a9
:104d88000200780000000600910988008009880068
:104d9800000006008209800091098000f8ff3700b2
:104da80000000600e01921000048eb002688a80052
:104db8003be1a800000006003be1a9002688a90005
:104dc80000000600e1192100114078000004e0000d
:104dd800010032008048eb0000000600f0192100b5
:104de8001080fb0000000600f0192100dcff3700ee
:104df8000a21ef0080572000700888000000280072
:104e080090088800001a2100210037000108ab0033
:104e180006003200101a21001048e80011c0b30043
:104e28000000e900014878000108a9000000060018
:104e380070088800f3ff3700700880000000060043
:104e480050088800efff3700500880000000060077
:104e5800001a21000048eb0013e1a800000006003a
:104e680013e1a90000000600011a21001140780092
:104e78000004e000010032008048eb00000006005a
:104e8800101a21001080fb0000000600101a2100f3
:104e98000048eb000000060000002300203a8800cc
:104ea8004827ef004e27ef0040042000303a8800e2
:104eb8004420a90044c0a90044e0a9004480a900f6
:104ec800a109200032002000800720003374200050
:104ed800804978008149780082497800710520006e
:104ee800120020006004200023742000804978000c
:104ef80081497800824978004207ab00feff3a00fa
:104f080000000600c3e8a800000000000000000040
:104f180000000600200f20004400b6000050a0004a
:104f2800200288000000060001fd0700daff0700e4
:104f3800f5fe07000c00070082fd07001d000700b2
:104f4800cbf9070096fa07003b0007002cfc070086
:104f580078ff070080f707005dfb0700a4ff070044
:104f6800e8ff0700ebff370040442800001b8800db
:104f780000412000101b880030e62000201b88001c
:104f88006823ef0010002000701b880000b020008c
:104f9800801b88007223ef006623ef00101b80003f
:104fa8004200de007f40600024f0b70022a8a8007d
:104fb8000000060040442800001988000041200035
:104fc8001019880030e62000201988002823ef00f7
:104fd8002e23ef00f0002000801988003223ef0014
:104fe8002623ef00101980004200de007f40600099
:104ff80026f0b7000000060001a8a900000006007e
:020000040000fa
:10500800f03fb1000180b10006003500ee03090051
:1050180000000000403fb1000180b100fbff3d00ef
:105028001000b000203fb0000200350000800900e9
:0850380000000000000006006a
:020000040000fa
:105040000288a900c228a8002288a80003a8a900f5
:10505000c248a80023a8a80000000600000006001f
:10506000801121008007780078004000000188004e
:0c5070000000060040818800ffff3700b0
:020000040000fa
:02000004000af0
:04afe000ceff0000a0
:020000040000fa
:02000004000af0
:04afe400efff00007b
:020000040000fa
:02000004000af0
:04afe8007fff0000e7
:020000040000fa
:02000004000af0
:04afec0019ff000049
:020000040000fa
:02000004000af0
:04aff000f8ff000066
:020000040000fa
:02000004000af0
:04aff400ffff00005b
:00000001FF
