:020000040000fa
:080000000002040000000000f2
:020000040000fa
:04000800d003000021
:020000040000fa
:04000c000a040000e2
:020000040000fa
:040010005e0400008a
:020000040000fa
:04001400ec030000f9
:020000040000fa
:0400180026040000ba
:020000040000fa
:04001c00420400009a
:020000040000fa
:040020007a0400005e
:020000040000fa
:04002400860700004b
:020000040000fa
:040028008607000047
:020000040000fa
:04002c008607000043
:020000040000fa
:04003000860700003f
:020000040000fa
:04003400860700003b
:020000040000fa
:040038008607000037
:020000040000fa
:04003c008607000033
:020000040000fa
:04004000860700002f
:020000040000fa
:04004400860700002b
:020000040000fa
:040048008607000027
:020000040000fa
:04004c008607000023
:020000040000fa
:04005000860700001f
:020000040000fa
:04005400e4040000c0
:020000040000fa
:040058009a04000006
:020000040000fa
:04005c008607000013
:020000040000fa
:04006000860700000f
:020000040000fa
:04006400860700000b
:020000040000fa
:040068008607000007
:020000040000fa
:04006c008607000003
:020000040000fa
:0400700086070000ff
:020000040000fa
:0400740086070000fb
:020000040000fa
:04007800520700002b
:020000040000fa
:04007c0086070000f3
:020000040000fa
:0400800086070000ef
:020000040000fa
:0400840086070000eb
:020000040000fa
:0400880086070000e7
:020000040000fa
:04008c0086070000e3
:020000040000fa
:0400900086070000df
:020000040000fa
:0400940086070000db
:020000040000fa
:0400980086070000d7
:020000040000fa
:04009c006c070000ed
:020000040000fa
:0400a000ee06000068
:020000040000fa
:0400a400a4060000ae
:020000040000fa
:0400a80086070000c7
:020000040000fa
:0400ac0086070000c3
:020000040000fa
:0400b00086070000bf
:020000040000fa
:0400b40086070000bb
:020000040000fa
:0400b80086070000b7
:020000040000fa
:0400bc0086070000b3
:020000040000fa
:0400c00086070000af
:020000040000fa
:0400c40086070000ab
:020000040000fa
:0400c80086070000a7
:020000040000fa
:0400cc0086070000a3
:020000040000fa
:0400d000860700009f
:020000040000fa
:0400d400860700009b
:020000040000fa
:0400d8008607000097
:020000040000fa
:0400dc008607000093
:020000040000fa
:0400e000860700008f
:020000040000fa
:0400e400860700008b
:020000040000fa
:0400e8008607000087
:020000040000fa
:0400ec008607000083
:020000040000fa
:0400f000860700007f
:020000040000fa
:0400f400860700007b
:020000040000fa
:0400f800a60300005b
:020000040000fa
:0400fc008607000073
:020000040000fa
:04010000860700006e
:020000040000fa
:04010400860700006a
:020000040000fa
:040108008607000066
:020000040000fa
:04010c008607000062
:020000040000fa
:04011000860700005e
:020000040000fa
:04011400860700005a
:020000040000fa
:040118008607000056
:020000040000fa
:04011c008607000052
:020000040000fa
:04012000860700004e
:020000040000fa
:04012400860700004a
:020000040000fa
:040128008607000046
:020000040000fa
:04012c003e0500008c
:020000040000fa
:04013000480700007c
:020000040000fa
:04013400860700003a
:020000040000fa
:040138008607000036
:020000040000fa
:04013c008607000032
:020000040000fa
:04014000860700002e
:020000040000fa
:04014400860700002a
:020000040000fa
:040148008607000026
:020000040000fa
:04014c008607000022
:020000040000fa
:04015000860700001e
:020000040000fa
:04015400860700001a
:020000040000fa
:040158008607000016
:020000040000fa
:04015c008607000012
:020000040000fa
:04016000860700000e
:020000040000fa
:04016400860700000a
:020000040000fa
:040168008607000006
:020000040000fa
:04016c00ec0500009e
:020000040000fa
:0401700092050000f4
:020000040000fa
:04017400480500003a
:020000040000fa
:0401780086070000f6
:020000040000fa
:04017c0086070000f2
:020000040000fa
:0401800086070000ee
:020000040000fa
:040184009a060000d7
:020000040000fa
:04018800400600002d
:020000040000fa
:04018c00f605000074
:020000040000fa
:0401900086070000de
:020000040000fa
:0401940086070000da
:020000040000fa
:0401980086070000d6
:020000040000fa
:04019c0086070000d2
:020000040000fa
:0401a00086070000ce
:020000040000fa
:0401a40086070000ca
:020000040000fa
:0401a80086070000c6
:020000040000fa
:0401ac0086070000c2
:020000040000fa
:0401b00086070000be
:020000040000fa
:0401b40086070000ba
:020000040000fa
:0401b80086070000b6
:020000040000fa
:0401bc0086070000b2
:020000040000fa
:0401c00086070000ae
:020000040000fa
:0401c40086070000aa
:020000040000fa
:0401c80086070000a6
:020000040000fa
:0401cc0086070000a2
:020000040000fa
:0401d000860700009e
:020000040000fa
:0401d400860700009a
:020000040000fa
:0401d8008607000096
:020000040000fa
:0401dc008607000092
:020000040000fa
:0401e000860700008e
:020000040000fa
:0401e400860700008a
:020000040000fa
:0401e8008607000086
:020000040000fa
:0401ec008607000082
:020000040000fa
:0401f000860700007e
:020000040000fa
:0401f400860700007a
:020000040000fa
:0401f8008607000076
:020000040000fa
:0401fc008607000072
:020000040000fa
:04020000860700006d
:020000040000fa
:040204008607000069
:020000040000fa
:040208008607000065
:020000040000fa
:04020c008607000061
:020000040000fa
:04021000860700005d
:020000040000fa
:040214008607000059
:020000040000fa
:040218008607000055
:020000040000fa
:04021c008607000051
:020000040000fa
:04022000860700004d
:020000040000fa
:040224008607000049
:020000040000fa
:040228008607000045
:020000040000fa
:04022c008607000041
:020000040000fa
:04023000860700003d
:020000040000fa
:040234008607000039
:020000040000fa
:040238008607000035
:020000040000fa
:04023c008607000031
:020000040000fa
:04024000860700002d
:020000040000fa
:040244008607000029
:020000040000fa
:040248008607000025
:020000040000fa
:04024c008607000021
:020000040000fa
:04025000860700001d
:020000040000fa
:040254008607000019
:020000040000fa
:040258008607000015
:020000040000fa
:04025c008607000011
:020000040000fa
:04026000860700000d
:020000040000fa
:040264008607000009
:020000040000fa
:040268008607000005
:020000040000fa
:04026c008607000001
:020000040000fa
:0402700086070000fd
:020000040000fa
:0402740086070000f9
:020000040000fa
:0402780086070000f5
:020000040000fa
:04027c0086070000f1
:020000040000fa
:0402800086070000ed
:020000040000fa
:10040000cf5821000eff27000e01880000000000d9
:10041000000020000000e000020032000001200087
:100420002002880014000700cd0207000000e00051
:1004300003003a0040b12100010020000200370013
:100440000000200001002000810f70000100320038
:100450000f000700000020000000e0000200320052
:100460000000020000000000ea110200000000008d
:100470000040da000000fe00801720000000e000cd
:1004800002003200002020009001880000000600d9
:10049000a1028800800478000000eb001f003700f4
:1004a000e284440054a0b4009905ba00e2844400f8
:1004b00054a0b4009906ba00e284440054a0b400e9
:1004c0000006eb00476fde00fd07b200ae018800ba
:1004d000636ce10003003a000ad801000000eb0061
:1004e0000e003700606ce10008003a00004deb00a0
:1004f0000a05e800020039003420ec000af0a000f0
:100500008b05e900f9ff3e00040037006168e10057
:10051000010032000086eb000b00070019c7ba008b
:100520000e04e0001905ba0003003a000a00e000da
:10053000dbff3a0000000600fe07b200ae028800b2
:100540008a047800f5ff37000cd0a300e20f4d00bd
:100550001c00390089027800354dba000a05e80010
:10056000020039003420ec000af0a0008b05e900fd
:100570000f003200254dba000a05e80002003900dc
:100580003420ec000af0a0008b05e90008003200de
:100590000c00e0000600320015cdba000a05e800a4
:1005a000020039003420ec000af0a0008b05e900bd
:1005b0008984e80054a0b4000b00e000e2ff3a0098
:1005c000000006009902ba00055d78008b05e9007d
:1005d000f7ff3200c82ade00055d78008b05e900d0
:1005e000f3ff32000c00e000f1ff320019ddba0029
:1005f000eeff3700501404000000000088140400cf
:1006000000000000761404000000000068140400dc
:100610000000000010140400000000001a14040080
:1006200000000000a81404000000000024140400ce
:1006300000000000b419040000000000ec190400e0
:1006400000000000da19040000000000cc190400ca
:100650000000000074190400000000007e1904006e
:10066000000000000c1a04000000000088190400bb
:10067000000000001c1604000000000054160400d6
:1006800000000000421604000000000034160400c0
:1006900000000000dc15040000000000e615040066
:1006a000000000007416040000000000f0150400b3
:1006b00000000000e81704000000000020180400fb
:1006c000000000000e1804000000000000180400e4
:1006d00000000000a817040000000000b21704008a
:1006e000000000004018040000000000bc170400d7
:1006f000000000008020040000000000e220040050
:10070000000000004213040000000000e413040095
:1007100000000000e613040000000000b015040013
:1007200000000000b2150400000000007c17040067
:10073000000000007e1704000000000048190400bb
:10074000000000004a190400000000003600f80014
:10075000809fbe00829fbe00849fbe00869fbe0019
:10076000608280000000e000010032000000010013
:10077000701821001048e80011c0b3000000e90023
:10078000014878000688a9004f03be004f02be0052
:100790004f01be004f00be003600f90000400600c9
:1007a0003600f800809fbe00829fbe00849fbe007e
:1007b000869fbe00c028a9000000eb00b50e070010
:1007c0004f03be004f02be004f01be004f00be00ef
:1007d0003600f900004006003600f800809fbe0099
:1007e000829fbe00849fbe00869fbe00a40e0700ad
:1007f000c048a90010002000a60e07004f03be004d
:100800004f02be004f01be004f00be003600f9008f
:10081000004006003600f800809fbe00829fbe00a8
:10082000849fbe00869fbe00c068a90020002000f3
:10083000980e07004f03be004f02be004f01be00de
:100840004f00be003600f900004006003600f800f8
:10085000809fbe00829fbe00849fbe00869fbe0018
:10086000c088a900300020008a0e07004f03be0098
:100870004f02be004f01be004f00be003600f9001f
:10088000004006003600f800809fbe00829fbe0038
:10089000849fbe00869fbe00c0a8a9004000200023
:1008a0007c0e07004f03be004f02be004f01be008a
:1008b0004f00be003600f900004006003600f80088
:1008c000809fbe00829fbe00849fbe00869fbe00a8
:1008d000c608a900700020006e0e07004f03be007e
:1008e0004f02be004f01be004f00be003600f900af
:1008f000004006003600f800809fbe00829fbe00c8
:10090000849fbe00869fbe00c4a8ab0003003200d7
:10091000c4a8a900900020005e0e0700c488ab00a8
:1009200003003200c488a900a0002000590e07006f
:10093000ffff37003600f800809fbe00829fbe0098
:10094000849fbe00869fbe00008080000000e00003
:1009500001003200000001005180800040808000d2
:10096000810f500002003a002188a90010003700d2
:100970000188a9000c003700408080003081fb0016
:100980002211880040808800301321000810e30005
:1009900002003a00690050004080880040808000da
:1009a000810f5000020032002322ab00f2ff320020
:1009b0004f03be004f02be004f01be004f00be00fd
:1009c0003600f900004006003600f800809fbe00a7
:1009d000829fbe00849fbe00869fbe001080800064
:1009e0000000e00001003200000001000168a900e1
:1009f0002080800019003700318080003211800093
:100a0000824878008112210032808000810f5100dd
:100a100006003200318080008100e800810f500024
:100a2000020032000630ec000c0037008112210079
:100a300033808000818f510005003a00e88050002b
:100a4000810f50000200320031808800030037001f
:100a500011c0b300c2002100014978002202ab009e
:100a6000e5ff3a004f03be004f02be004f01be003b
:100a70004f00be003600f900004006002222ab0005
:100a8000010032002222a9000828a9000040060027
:100a90003600f800809fbe00829fbe00849fbe008b
:100aa000869fbe00708080000000e00001003200e0
:100ab00000000100c1808000b0808000810f5000e4
:100ac00002003a002a68a900100037000a68a9004d
:100ad0000c003700b08080003081fb00a21288003b
:100ae000b0808800701421001610e30002003a0064
:100af00069005000b0808800b0808000810f5000f5
:100b0000020032005322ab00f2ff32004f03be005e
:100b10004f02be004f01be004f00be003600f9007c
:100b2000004006003600f800809fbe00829fbe0095
:100b3000849fbe00869fbe00808080000000e00091
:100b400001003200000001000a48a90090808000e6
:100b500019003700a1808000b2128000824878001e
:100b6000c1132100a2808000810f510006003200d5
:100b7000a18080008100e800810f50000200320057
:100b80001430ec000c003700c1132100a38080005a
:100b9000818f510005003a00e8805000810f50001d
:100ba00002003200a18088000300370011c0b300aa
:100bb000a2012100014978005202ab00e5ff3a0092
:100bc0004f03be004f02be004f01be004f00be00eb
:100bd0003600f900004006005222ab00010032004e
:100be0005222a9000a28a900004006003600f80099
:100bf000809fbe00829fbe00849fbe00869fbe0075
:100c0000e08080000000e0000100320000000100f0
:100c10003181800020818000810f500002003a0065
:100c20002b28a900100037000b28a9000c00370062
:100c3000208180003081fb00a2158800208188007f
:100c4000b01521002410e30002003a0069005000b2
:100c50002081880020818000810f50000200320036
:100c6000b322ab00f2ff32004f03be004f02be00c2
:100c70004f01be004f00be003600f90000400600e4
:100c80003600f800809fbe00829fbe00849fbe0099
:100c9000869fbe00f08080000000e000010032006e
:100ca000000001000b08a900008180001900370036
:100cb00011818000b2158000824878000115210062
:100cc00012818000810f51000600320011818000e6
:100cd0008100e800810f5000020032002230ec0059
:100ce0000c0037000115210013818000818f510015
:100cf00005003a00e8805000810f500002003200e9
:100d0000118188000300370011c0b3008202210066
:100d100001497800b202ab00e5ff3a004f03be0084
:100d20004f02be004f01be004f00be003600f9006a
:100d300000400600b222ab0001003200b222a9003e
:100d40000ae8a900004006003600f800809fbe00b7
:100d5000829fbe00849fbe00869fbe00508180009f
:100d60000000e0000100320000000100a1818000cd
:100d700090818000810f500002003a0023e8a90012
:100d80001000370003e8a9000c00370090818000b4
:100d90003081fb00a211880090818800f0162100ac
:100da0003210e30002003a00690050009081880090
:100db00090818000810f5000020032003322ab008e
:100dc000f2ff32004f03be004f02be004f01be00d3
:100dd0004f00be003600f900004006003600f80063
:100de000809fbe00829fbe00849fbe00869fbe0083
:100df000608180000000e00001003200000001007e
:100e000003c8a9007081800019003700818180002b
:100e1000b211800082487800411621008281800052
:100e2000810f510006003200818180008100e800be
:100e3000810f5000020032003030ec000c0037000f
:100e40004116210083818000818f510005003a0006
:100e5000e8805000810f500002003200818188003c
:100e60000300370011c0b30062032100014978007c
:100e70003202ab00e5ff3a004f03be004f02be0056
:100e80004f01be004f00be003600f90000400600d2
:100e90003222ab00010032003222a9000848a9002a
:100ea000004006003600f800809fbe00829fbe0012
:100eb000849fbe00869fbe00f90507000288a90036
:100ec0004f03be004f02be004f01be004f00be00e8
:100ed0003600f900004006003600f800809fbe0092
:100ee000829fbe00849fbe00869fbe00dc0c070070
:100ef00003a8a9004f03be004f02be004f01be0071
:100f00004f00be003600f900004006000040da0045
:100f10000000fe00889fbe008a1f78000104780050
:100f2000020578008004eb00070037003b0807004b
:100f30000004e000fdff320009004400104078008a
:100f40003f0807008904e8008a8f5400f7ff390042
:100f50000a0078004f0578004f04be00000006002c
:100f6000000005000c00fa00889fbe000004780015
:100f7000f0ff2700d0bf9f008004eb0099bf9f00c7
:100f800088bf9f00a8bf9f00200c2000b0bf9f001b
:100f900078815700cfb0970070805700100007008d
:100fa0000fb89700094878008fb897000880500064
:100fb0004f04be000080fa0000000600d00190003f
:100fc000028151004240a900030034001001780062
:100fd000014978000208e8000100780000000600de
:100fe000f4874700889fbe008a9fbe008c9fbe008a
:100ff0008e1f780000057800020778008004eb005f
:101000009b0237000101e800a2b79f0052c2b30063
:10101000824f500003003a008001eb000304780087
:1010200012003700ba0090000000fb000168a30026
:101030000700320009017800800078000a0078007b
:10104000deff07000000e00005003a0087023700dd
:101050008a0078009e020700e10f40008302320000
:101060008904e800810237008301e8000101e800fb
:101070000281410012407800d4c2b300844f500076
:101080000c00320007003c006d425200844f5000bb
:101090000a0032006b424200844f50000d003a00bb
:1010a0000800370004c3b300844f500009003a0021
:1010b000060037000830a000ebff37000800a00052
:1010c000e9ff37000810a000e7ff37000820a00064
:1010d000e5ff3700820178000818a3000100320004
:1010e0000800a1000838a300010032000820a10078
:1010f0008000fb000103b100e98f500011003e00a9
:101100000000eb008000780083027800ea0bb90051
:101110006101b800828042009100fb000103b10030
:10112000868040000502e800020142000000e8005d
:101130001202fb000403b100e90f5200f3ff360076
:10114000060037008000eb00a3c2b300834f5000bd
:1011500002003a00ce0078000201e8008005eb00b2
:10116000e0c2b300924f10000a003a0008e0a0006d
:1011700002007800a3c2b300d0cf110003003200f8
:101180000b0078008005780006003700ce05780057
:101190000001e8008001eb000e003700ea5ab900b8
:1011a000848541000202e8008002eb000402400056
:1011b000e0824a00944178000000e8008301fb00cf
:1011c0000303b100e98f5100f4ff360004017800f9
:1011d000f0ff3700611ab8000400410010407800a9
:1011e0000203e80004034300a6b79f00c4c6b3008f
:1011f000844f5000250032000f003c0032c6b3007f
:10120000824f50008900320004003c000004e000de
:101210001b0232006b4151000f00370042c6b30081
:10122000824f50001700320065414100824f50004c
:1012300093003a001300370032c7b300824f5000ca
:101240001c00320007003c0064415100824f5000f6
:10125000110032000241e800824f500088003a003d
:101260001000370052c7b300824f5000890032008f
:1012700063414100824f500081003a0080e79f00a7
:101280000a00370080e79f00840037000840a00074
:101290008301e800cfff370080e79f000860a000cf
:1012a0007e00370080e79f000850a0000870a00073
:1012b0007a00370080e79f004e0078000006780033
:1012c0000000e00001003a002c0721000c0178002a
:1012d0000000eb00010037000000e8008001410041
:1012e0001304e000fcff3a00800678000b00e000e9
:1012f000030032008d8f5500010031008b0678000d
:101300008005eb008d8f5000010036008d85500068
:10131000680464002a003a00110037003a00900087
:101320000068a300070032000901780001022000d4
:101330000a00780021ff07000000e00006003a00e4
:10134000060037008a00780000022000e001070054
:10135000e10f4000010032008904e8008b05e9003c
:101360000b00e000edff3a008085eb001400370031
:101370003a0090000068a300090032000c007800d9
:10138000b000fb0000067800090178000a00780030
:101390000aff07000000e00008003a0008003700dc
:1013a0008c0078003100fb00010678008a0078008c
:1013b000c7010700e10f4000010032008904e80086
:1013c0000d0078008006e9000000e000e8ff3a0028
:1013d0000800e000a5013200110037003a0090003b
:1013e0000068a30007003200090178000102200014
:1013f0000a007800f1fe07000000e00006003a0055
:10140000060037008a00780000022000b0010700c3
:10141000e10f4000010032008904e8008b05e9007b
:101420000b00e000edff3a00900137004e0178001c
:10143000cf91de00c81ade004818dd004812de0039
:101440000402700084e79f000848a30008003200ef
:101450000404e00006003200e14f420004003200c4
:1014600094e79f00a2e79f002d00200002003700b4
:1014700092e79f001d0020007f8657009bff3700ea
:1014800080e79f000cfe2f000f0646001d00200085
:1014900096ff370080e79f00080cb3000801780032
:1014a000020cb200700064000200e0000f003a007d
:1014b0000000e00004003200640757001e067800b8
:1014c0009e069000020037004e067800cfe6de0050
:1014d000e00f5600e08f5e000c003d003800b300c6
:1014e00060061600e0861e00080037000000e000dd
:1014f00004003200640757001e0678009e06900024
:10150000020037004e0678008006eb000b00e0007a
:1015100005003a008c8576000bf0a7008b05ea00e9
:101520008b05e900cf5dde0088017800030cb20076
:10153000e3b79f0000042000808f51002600320096
:1015400003003c000300e0000800320030003700d8
:10155000000820006fb29700800f52001000320088
:10156000000c2000800f520029003a0010c0b30088
:101570000001eb000201e8004212dd00a307210098
:1015800083014200b30f5600a38f5e001f00390095
:101590000040e800ea4f5000f6ff3a001b00370019
:1015a00010c0b3000201200003002000820f56008b
:1015b000838f5e0015003900441add00cc11de0077
:1015c000830172004411dd000040e800e84f500044
:1015d000f6ff3a000d00370010c0b3008200200073
:1015e00003002000820f5600838f5e000700390041
:1015f000431add00cd11de00830172004311dd00ce
:101600000040e800eb4f5000f6ff3a0080e79f00f3
:101610000fe197000200fb008b0f500002003d001d
:101620008be79f0003003700808f550001003d00cd
:10163000800578000100e0000300320063006400d0
:10164000010032008100e90008e8a3000500320033
:101650008b8f5000020034008b8050000100370057
:101660008000eb008fe197000300fb000002eb001d
:10167000d4b79f00808f50000200340000805000db
:10168000d0b79f000828a300400032006101640029
:101690000818a3000f0032003a0090000068a30071
:1016a00006003200b10220000200e000010032001a
:1016b0008180e800090178000d003700b0022000a9
:1016c0000200e000010032000080e8008a0078009b
:1016d0000e0037000200e000100032003a009000d7
:1016e0000068a30007003200090178000102200011
:1016f0000a00780031fe07000000e00006003a0012
:10170000060037008a00780000022000f000070081
:10171000e10f4000010032008904e8005fb097004b
:101720000000e000b7003200bcb79f00cdb79f00bb
:10173000800678003a0090000068a300070032009d
:1017400009017800010320000a0078001bfe070051
:101750000000e00006003a00060037008a0078002a
:1017600000032000da000700e10f40000100320012
:101770008904e8008d06e900eeff3a00ddb79f001e
:101780003fb69700cfb697009e003700dfb19700b5
:101790000300e0001a0032000838a30018003a00e5
:1017a000bcb79f00cdb79f00830678003a00900039
:1017b0000068a30007003200090178000102200040
:1017c0000a007800fdfd07000000e00006003a0076
:1017d000060037008a00780000022000bc000700e5
:1017e000e10f4000010032008904e8008d06e900a5
:1017f000eeff3a00ddb79f003fb69700cfb69700e7
:10180000610164000818a3000e0032003a00900045
:101810000068a30006003200b10220000200e000d0
:10182000010032008180e800090178006b00370078
:10183000b00220000200e0006d0032000080e800ed
:101840006b0037000200e0006e0032003a009000aa
:101850000068a300030032000901780001022000a3
:101860005e0037008a007800000220006100370027
:101870008b05e90000042000efb09700808f500036
:101880004400320003003c000100e0000800320088
:101890004b003700000820006fb19700800f510007
:1018a0002d003200000c2000800f510044003a004f
:1018b000a00721006159b9000848a30016003200b2
:1018c000421add00ce12de00850272004212dd00f7
:1018d0000400400010027800900290000401be0055
:1018e0000c00be00f4b79f0085bf9f0015010700e4
:1018f00080e79f000000fb00cf80de007fb29700f2
:101900008fba97000401be001e01070000065600b2
:1019100081865e000c003700421add00ce12de0028
:10192000850272004212dd000400400010017800c0
:10193000110009000286d800a20020001100090051
:101940000280d80081e79f008fe197000343b00039
:1019500083e79f001a003700100621000858a300f3
:101960000100320000052100c258dd000c01be005c
:101970008100e900030033008301d1000281d3001c
:10198000fbff3700ef0061000100400010407800cd
:101990000a003700e358b9000c01be0000027800cd
:1019a0000402e900030033008301d1000281d30067
:1019b000fbff3700674061000043b00080e79f00f5
:1019c000ba0090000fe197000200fb000168a3003d
:1019d0000700320009017800800078000a007800d2
:1019e00076fd07000000e00005003a000500370022
:1019f0008a00780036000700e10f40000100320045
:101a00008904e8000b00e00099ff3a000838a300c1
:101a100016003200dfb197000300e000130034002d
:101a2000030478003a0090000068a3000700320029
:101a300009017800010220000a0078005ffd07001c
:101a40000000e00006003a00060037008a00780037
:101a5000000220001e000700e10f400001003200dc
:101a60008904e8000804e900eeff3a00afb09700ef
:101a70001140780080e79f000004e00061fd3a001b
:101a8000090078004f0778004f06be004f05be00e2
:101a90004f04be004f01b100000006000000fa0034
:101aa00068815700cfb89700200e21004cfd070039
:101ab0000080fa000000060000017800b1417800c3
:101ac000035978000304e000fcff3a000000060020
:101ad000889fbe0001047800b80090008084eb006d
:101ae0000118a3003d003200180190000198a300e6
:101af00002003a000200e00038003a000190a00025
:101b00003104980080047800f90fb2000200e00070
:101b100002003a0028009000000c7800ea8f540080
:101b200005003a000178a30003003a00880078001d
:101b3000d0002000e6ff0700180090006102b90005
:101b400058019000e8019000820f5200838f5a00e4
:101b50000b0032000000e800100498001800780024
:101b600009487800000ce80011c0b30000182100fb
:101b700001487800ea8f540018003a000500370049
:101b8000880078000940780026000700800478006b
:101b900012003700380090000088a3000f003200c8
:101ba00018019000a800900048009000d9fc0700a0
:101bb00098009000810f500004003200380090001f
:101bc0000003b300300498008084eb000000eb00b9
:101bd0001004980028009000000c7800090078009c
:101be0004f04be0000000600800078000000eb00fb
:101bf0006101b8008102e800828242000000e80032
:101c0000028140001204e000f9ff3a008180ea00fe
:101c100001804200cf80de0000000600210e21007e
:101c2000abff37000200fa00889fbe00a0ff9f00b4
:101c30000104780038009000800478000904b200a4
:101c40003b003a00e200600005003a000003b300e8
:101c500030049800110498000080eb003600370033
:101c600058019000e8019000e00f5100e08f59000a
:101c700007003a001200200003002000e680570011
:101c800048009000a3fc07001904980028003700c2
:101c9000a80090000100e0000b003a00311821007c
:101ca00021049800010c780022002000030020008d
:101cb0005204980063049800210020001104980049
:101cc0000030a0003004980018019000cf91de0091
:101cd000a8009000480090008efc070028009000ab
:101ce0008080eb0011049800aff89700014878005d
:101cf000000ce8002ff89700ea4f50000c003a0063
:101d0000380090000088a3000900320018019000fc
:101d1000cf91de00a8009000480090007dfc0700f5
:101d20000000eb0010049800a8009000010c78005f
:101d3000aff897000100fb004f04be000080fa00de
:101d4000000006006022b800060220000000d0005b
:101d50008180d2000482d2008582d2000000a000df
:101d60000202520083825a00030031000202420044
:101d700083824a000000a1000603e900f3ff3a0055
:101d800000000600020ab900001bb9000200b800fa
:0c1d9000810042008100430000000600ba
:020000040000fa
:101d9c0025300000347500000025000030310000b3
:101dac00306c000075000000002500003031000090
:101dbc00306c00006400000025300000327500001b
:101dcc003a25000030320000753a00002530000042
:101ddc00327500000000000000000000010300004c
:101dec00070f00001f1f000000000000101800006b
:101dfc00000000001f1f0000000000000001000098
:101e0c00030700000f1f0000070f00001f1f00003a
:101e1c001f1f00001f1f00001f1f00001f1f0000be
:101e2c001f1f00001f1f0000000000001f1f0000ec
:101e3c00000000001f1f0000000000001f1f00001a
:101e4c00000000001f1f0000000000000010000038
:101e5c00000000001e1f0000040e00001f04000004
:101e6c00040400000400000004040000040400004a
:101e7c001f0e0000040000000e0200000e02000005
:101e8c000e000000000000000c120000040800000e
:101e9c001e000000000000000d12000000110000e8
:101eac0019150000130000000e0a00000e000000bf
:101ebc000000000000000000001f00000a040000e9
:101ecc0004040000040000001f000000151b0000ab
:101edc001b1b00001b0000004d450000545400006b
:101eec004543000000000000535200005453000012
:101efc002d41000020760000322e00003000000042
:101f0c0077770000772e00006d6500007474000078
:101f1c00656300002e6300006f6d00002e610000f1
:101f2c0072000000486500006c6c00006f2000001f
:101f3c00576f0000726c0000642100002025000027
:101f4c00640a00000052000065630000656900002f
:101f5c00766500002074000065730000743a000080
:101f6c002054000079700000652000006120000002
:101f7c006d65000073730000616700006520000050
:101f8c0074680000656e000020700000726500002f
:101f9c0073730000206500006e7400006572000011
:101fac00202800006d610000782000003136000010
:101fbc00206300006861000072730000293a000081
:101fcc00005900006f75000020740000797000004b
:101fdc00656400003a200000000a00006f6b0000ee
:101fec0000540000726100006e7300006d69000007
:101ffc007420000074650000737400000a00000077
:10200c0050140000881400007614000068140000be
:10201c00101400001a140000a8140000241400006e
:10202c00b4190000ec190000da190000cc190000fa
:10203c00741900007e1900000c1a000088190000a9
:10204c001c16000054160000421600003416000046
:10205c00dc150000e615000074160000f0150000f9
:10206c00e8170000201800000e18000000180000ef
:10207c00a8170000b217000040180000bc170000a1
:020000040000fa
:10208c008e0107009f010700a8010700252ea8005c
:10209c0000ac2d00010020005f080700252ea900d0
:1020ac0000ac2d00010020005b0837008301070005
:1020bc00940107009d0107004083200001002000cf
:1020cc0055080700252ea8004083200001002000a1
:1020dc0051080700252ea900408320000100200094
:1020ec004d083700881f780097010700e4ff0700b0
:1020fc006f406400e2ff07004f0478000000060008
:10210c00881f780090010700e8ff07006f4064000b
:10211c00e6ff07004f04780000000600881f7800d7
:10212c008e010700d6ff07006f406400d4ff070044
:10213c004f04780000000600881f78008701070014
:10214c00daff07006f406400d8ff07004f047800e7
:10215c000000060010c0b300e2ff3700889fbe00ed
:10216c00800478000004eb0001003700f2ff070048
:10217c0008804400104078000804e8000004e000e7
:10218c00faff3a004f04be000000060042c1b30043
:10219c00e3cf50000700320042c5b300e4cf50003b
:1021ac000400320074415100e2cf500001003200b3
:1021bc000041eb000040e900024040000074a00028
:1021cc00cfff3700889fbe00810478006740600015
:1021dc000064a000c3ff07000004eb00088044006b
:1021ec0010407800d4ff07000804e8000004200029
:1021fc00800f5400f9ff3a004f04be0000000600a7
:10220c0014aea800542ea800252ea90000702100a1
:10221c00110120000008070030c0b30098ff070030
:10222c000073250051002000fb07070030c0b300ed
:10223c0093ff07004090220001002000f6070700e2
:10224c0030c0b3008eff0700007325005100200042
:10225c00f107070020c0b30089ff070080c2b3005c
:10226c00a0ff070080c0b3009eff070010c0b300a2
:10227c009cff070060c0b3009aff0700c0c0b3000a
:10228c0098ff070021ef28000040eb00cdff37003e
:10229c00889fbe0040c1b30099ff0700adff070047
:1022ac0011c0b30010c1b300b8ff07000040eb0031
:1022bc00a1ff070010c0b3009fff070021c0b300af
:1022cc00f0c0b300b1ff070020c0b3009aff0700b5
:1022dc0030c0b30098ff070040c0b30096ff070062
:1022ec0050c0b30094ff070060c0b30092ff07001a
:1022fc0070c0b30090ff0700e8c0b30080c1b3000a
:10230c007fff0700007e260051032000c207070054
:10231c000844e900f9ff3a0011c0b30090c1b300c2
:10232c009aff070020f728008cff070021c0b3009c
:10233c0070c1b30095ff0700a0f7280087ff0700c6
:10234c0040c1b3006eff070041c0b300f0c0b30042
:10235c008eff07000004eb0069f828000880440099
:10236c001040780074ff0700007e26005103200007
:10237c00a90707000804e800e60f5400f6ff3a002e
:10238c0031c0b30050c1b30080ff07000004eb0064
:10239c00088044006040900067ff0700007e260024
:1023ac00510320009c0707000804e800eb0f5400c1
:1023bc00f7ff3a0000d82100c14220009607070021
:1023cc004f04be0000000600881f78006b07070052
:1023dc00c905070024eea90034cea800152ea900cb
:1023ec0034aea90024cea80085ff0700a8ff070083
:1023fc0058ff0700c0c0b3003aff07000003f80005
:10240c00e8ec2800881f7800200a2100d2fa070087
:10241c0011c0b300014078005cff0700200a2100c6
:10242c004eff07000203f800881f7800200a2100e5
:10243c00c9fa070021c0b30010c0b30053ff070056
:10244c00200a210045ff07000403f800881f7800cc
:10245c00200a2100c0fa070031c0b30010c0b3003d
:10246c004aff0700200a21003cff07000603f80082
:10247c00881f7800200a2100b7fa070041c0b3007a
:10248c0010c0b30041ff0700200a210033ff0700f2
:10249c004003f800881f7800200a2100aefa0700dc
:1024ac0011c0b30060c0b30038ff0700200a210040
:1024bc002aff07004203f800881f7800200a210039
:1024cc00a5fa070021c0b30060c0b3002fff0700be
:1024dc00200a210021ff07004403f800881f780020
:1024ec00200a21009cfa070031c0b30060c0b30081
:1024fc0026ff0700200a210018ff07004603f800fa
:10250c00881f7800200a210093fa07000f02b100ff
:10251c0041c0b30060c0b3001cff0700200a2100bb
:10252c000eff0700e0818000f1818000809fbe00db
:10253c0030ed2800801f7800200a210086fa070061
:10254c0011c0b300b0c0b30010ff0700200a210077
:10255c0002ff0700a1ed2800200a210053fd07000f
:10256c0031c0b300b0c0b30008ff0700200a21003f
:10257c00fafe0700a7050700008288001182880078
:10258c000082800011828000e6875700e00f500027
:10259c00e08f58000700350075000700e00f500071
:1025ac00e08f580001003d007b0007000040e80070
:1025bc00060037006e000700e00f5000e08f580057
:1025cc0001003d00740007006540400044f0b70076
:1025dc000082800011828000809fbe00b0ed280038
:1025ec00801f7800200a21005bfa070021c0b3008d
:1025fc00b0c0b300e5fe0700200a2100d7fe07009b
:10260c004104210091407800a0c0b300dffe070018
:10261c00f0c0b300b3fe07003ad0bf000080fb004f
:10262c00801f780039d0bf000080fb00801f78002d
:10263c0038d0bf000080fb00801f780020ee2800ff
:10264c00801f7800200a210043fa070031c0b30034
:10265c00b0c0b300cdfe0700200a2100bffe07006a
:10266c00e604070000f82900510d2000ea060700d7
:10267c00ee8757005fff3700e0818000f18180001a
:10268c0061004000e0804800e0818800f181880012
:10269c000000060021708000c708de008180ea007f
:1026ac00e1806000c708dd00207080000070a10090
:1026bc000080700020708800000006008080fb0005
:1026cc00c309de008381ea00e1816100ca19dd00e3
:1026dc002270800002a0a10002817100227088008b
:1026ec00c209de008381ea00e1816100cc19dd00c2
:1026fc00a270800002c0a10002817100a27088004b
:10270c00000006000101d1000281ea0061016100b4
:10271c004b11dd00a170800001b0a100810071009f
:10272c00a17088008080ea0000000600e180600053
:10273c00ca08dd00a070800000a0a100008070001d
:10274c00a07088000000060000447800542ea800f9
:10275c000880fb004400de00000006000044780006
:10276c00542ea9000880fb004400de000000060087
:10277c0000828000118280003200200003002800bb
:10278c00000261000181610082017800040178007f
:10279c000200be000000060061005000e0805800fe
:1027ac00c2ff2f00f3ff2f00020070008380700027
:1027bc0061004000e08048000000060000000600b8
:1027cc00000006003180800020808000808f500047
:1027dc0001003100e9804000d900070001003e00f3
:1027ec00014078000000060041808000508080008d
:1027fc00810f5000020031008100e9000100370018
:10280c00e8804000ce00070001003e000140780047
:10281c00000006000000e00001003a00403e2100ec
:10282c0000808800000006000000e00001003a0073
:10283c00603e210010808800000006002188a9005d
:10284c002168a90080002000001188002222ef00de
:10285c00e071200040118800a01221004080880007
:10286c005080880000122100208088003080880071
:10287c000c70ef00403e2100e6ff0700603e210097
:10288c00e9ff07002168a80021e2a8002342a80064
:10289c0000000600208080000610e300feff3200de
:1028ac00800078003140780021808800921221004d
:1028bc00828f500002003a00e9005100218088000c
:1028cc0000000600308080000490b60000f0a700e5
:1028dc000000ea000000ea004f00de0000000600e5
:1028ec004180800050808000810f50000200310038
:1028fc008100e90001003700e880400000805000b2
:10290c00f2ff3700881f780000447800f4ff0700be
:10291c000004e000fdff3200508080000858780071
:10292c005080880031132100810f500002003a00c2
:10293c0069805000508088002188a8004f047800de
:10294c00000006000040eb005180800042808000b7
:10295c00810f510003003a00101180004800de0086
:10296c006140600000000600889fbe008a1f78004e
:10297c00000478000105780092ff07008084fb00ba
:10298c008a8f5400010036008a0478000005eb00a1
:10299c0004003700bfff07008a004400804878001d
:1029ac000a05e800890f5500faff39000900780084
:1029bc004f0578004f04be0000000600889fbe0043
:1029cc008a1f7800000478000105780086ff070054
:1029dc008084fb008a8f5400010036008a04780042
:1029ec000005eb00040037000a004400104078009a
:1029fc00c4ff07000a05e800890f5500faff3900eb
:102a0c00090078004f0578004f04be000000060056
:102a1c00881f78006bff07000044780072ff0700e6
:102a2c0080407800400020000804e00004003200e0
:102a3c0010002000e94f540001003200200020005b
:102a4c000104e00003003200e9cf500004003a001a
:102a5c00020037000030a000010037000040a00049
:102a6c004f047800000006000410b4008000eb0056
:102a7c00010037008100e8006909b800020150002c
:102a8c0093122100830f5100faff3e001240780090
:102a9c00000006004bff07000080fb000000e9006f
:102aac008dff370050ff0700fbff3700101180002f
:102abc00000006004cff0700804078000000eb008f
:102acc000104e00009003200508080000810e3008f
:102adc0004003600418080008100e9000080500035
:102aec00000006000810b500680040000000060059
:102afc0034ff0700804078000000eb000104e00088
:102b0c000a003200208080000610e300040031002f
:102b1c00318080000000e900010050000000060038
:102b2c003180800068004000010050000000060069
:102b3c0055ff370021e2a9002342a900000006003e
:102b4c008080500000c0eb00f20f2000828f5000fc
:102b5c00000006000000060000000600a1808000b6
:102b6c0090808000808f500001003100e98040008f
:102b7c00d900070001003e0001407800000006006b
:102b8c00b1808000c0808000810f500002003100b5
:102b9c008100e90001003700e8804000ce0007000a
:102bac0001003e0001407800000006000000e0003b
:102bbc0001003a00005b21007080880000000600d4
:102bcc000000e00001003a00205b210080808800ba
:102bdc00000006002a68a9002a48a90080002000ed
:102bec00801288005222ef00e0712000c012880091
:102bfc00e0132100b0808800c080880040132100c1
:102c0c0090808800a08088001a70ef00005b210083
:102c1c00e6ff0700205b2100e9ff07002a48a80017
:102c2c0051e2a8005342a8000000060090808000ea
:102c3c001410e300feff3200800078003140780071
:102c4c0091808800d2132100828f500002003a003c
:102c5c00e90051009180880000000600a0808000ef
:102c6c001290b60000f0a7000000ea000000ea0095
:102c7c004f00de0000000600b1808000c0808000a4
:102c8c00810f5000020031008100e9000100370083
:102c9c00e880400000805000f2ff3700881f780069
:102cac0000447800f4ff07000004e000fdff320050
:102cbc00c080800008587800c08088007114210002
:102ccc00810f500002003a0069805000c0808800db
:102cdc002a68a8004f047800000006000040eb00b2
:102cec00c1808000b2808000810f510003003a0047
:102cfc00901280004800de00614060000000060079
:102d0c00889fbe008a1f78000004780001057800b7
:102d1c0092ff07008084fb008a8f5400010036006c
:102d2c008a0478000005eb0004003700bfff0700a1
:102d3c008a004400804878000a05e800890f550095
:102d4c00faff3900090078004f0578004f04be00e7
:102d5c0000000600889fbe008a1f780000047800df
:102d6c000105780086ff07008084fb008a8f5400e1
:102d7c00010036008a0478000005eb0004003700df
:102d8c000a00440010407800c4ff07000a05e80060
:102d9c00890f5500faff3900090078004f057800bb
:102dac004f04be0000000600881f78006bff070070
:102dbc000044780072ff070080407800400020003b
:102dcc000804e0000400320010002000e94f540019
:102ddc0001003200200020000104e000030032005a
:102dec00e9cf500004003a00020037000030a00088
:102dfc00010037000040a0004f04780000000600de
:102e0c001210b4008000eb00010037008100e800d4
:102e1c006909b80002015000d3132100830f51003f
:102e2c00faff3e0012407800000006004bff07003e
:102e3c000080fb000000e9008dff370050ff070009
:102e4c00fbff370090128000000006004cff0700cb
:102e5c00804078000000eb000104e0000900320023
:102e6c00c08080001610e30004003600b1808000a2
:102e7c008100e90000805000000006001610b5002b
:102e8c00680040000000060034ff07008040780016
:102e9c000000eb000104e0000a003200908080008a
:102eac001410e30004003100a18080000000e90050
:102ebc000100500000000600a18080006800400066
:102ecc00010050000000060055ff370051e2a90038
:102edc005342a900000006008080500000c0eb00a7
:102eec00f20f2000828f5000000006000000060048
:102efc00000006001181800000818000808f50004e
:102f0c0001003100e9804000d900070001003e00bb
:102f1c000140780000000600218180003081800093
:102f2c00810f5000020031008100e90001003700e0
:102f3c00e8804000ce00070001003e000140780010
:102f4c00000006000000e00001003a00c0772100fc
:102f5c00e0808800000006000000e00001003a005c
:102f6c00e0772100f0808800000006002b28a900e3
:102f7c002b08a9008000200080158800b222ef00e9
:102f8c0070092000c01588002015210020818800c0
:102f9c003081880080142100008188001081880015
:102fac002870ef00c0772100e6ff0700e0772100d2
:102fbc00e9ff07002b08a800b1e2a800b342a80063
:102fcc0000000600008180002210e300feff3200aa
:102fdc0080007800314078000181880012152100b2
:102fec00828f500002003a00e900510001818800f4
:102ffc0000000600108180002090b60000f0a700b1
:10300c000000ea000000ea004f00de0000000600ad
:10301c002181800030818000810f5000020031003e
:10302c008100e90001003700e8804000008050007a
:10303c00f2ff3700881f780000447800f4ff070087
:10304c000004e000fdff3200308180000858780059
:10305c0030818800b1152100810f500002003a0028
:10306c0069805000308188002b28a8004f0478001c
:10307c00000006000040eb003181800022818000be
:10308c00810f510003003a00901580004800de00cb
:10309c006140600000000600889fbe008a1f780017
:1030ac00000478000105780092ff07008084fb0083
:1030bc008a8f5400010036008a0478000005eb006a
:1030cc0004003700bfff07008a00440080487800e6
:1030dc000a05e800890f5500faff3900090078004d
:1030ec004f0578004f04be0000000600889fbe000c
:1030fc008a1f7800000478000105780086ff07001d
:10310c008084fb008a8f5400010036008a0478000a
:10311c000005eb00040037000a0044001040780062
:10312c00c4ff07000a05e800890f5500faff3900b3
:10313c00090078004f0578004f04be00000006001f
:10314c00881f78006bff07000044780072ff0700af
:10315c0080407800400020000804e00004003200a9
:10316c0010002000e94f5400010032002000200024
:10317c000104e00003003200e9cf500004003a00e3
:10318c00020037000030a000010037000040a00012
:10319c004f047800000006002010b4008000eb0003
:1031ac00010037008100e8006909b80002015000f5
:1031bc0013152100830f5100faff3e0012407800d6
:1031cc00000006004bff07000080fb000000e90038
:1031dc008dff370050ff0700fbff37009015800074
:1031ec00000006004cff0700804078000000eb0058
:1031fc000104e00009003200308180002410e3005b
:10320c0004003600218180008100e900008050001c
:10321c00000006002410b500680040000000060005
:10322c0034ff0700804078000000eb000104e00050
:10323c000a003200008180002210e30004003100fb
:10324c00118180000000e900010050000000060020
:10325c001181800068004000010050000000060051
:10326c0055ff3700b1e2a900b342a90000000600e7
:10327c008080500000c0eb00f20f2000828f5000c5
:10328c00000006000000060000000600818180009e
:10329c0070818000808f500001003100e980400077
:1032ac00d900070001003e00014078000000060034
:1032bc0091818000a0818000810f500002003100bc
:1032cc008100e90001003700e8804000ce000700d3
:1032dc0001003e0001407800000006000000e00004
:1032ec0001003a0080942100508188000000060003
:1032fc000000e00001003a00a094210060818800e9
:10330c000000060023e8a90023c8a90080002000c3
:10331c00801188003222ef00e0712000c01188007b
:10332c006016210090818800a0818800c0152100c2
:10333c0070818800808188003670ef0080942100b5
:10334c00e6ff0700a0942100e9ff070023c8a800ae
:10335c0031e2a8003342a800000006007081800012
:10336c003010e300feff320080007800314078001e
:10337c007181880052162100828f500002003a00a1
:10338c00e9005100718188000000060080818000f6
:10339c002e90b60000f0a7000000ea000000ea0042
:1033ac004f00de000000060091818000a0818000ab
:1033bc00810f5000020031008100e900010037004c
:1033cc00e880400000805000f2ff3700881f780032
:1033dc0000447800f4ff07000004e000fdff320019
:1033ec00a081800008587800a0818800f116210087
:1033fc00810f500002003a0069805000a0818800c3
:10340c0023e8a8004f047800000006000040eb0001
:10341c00a181800092818000810f510003003a004d
:10342c00901180004800de00614060000000060042
:10343c00889fbe008a1f7800000478000105780080
:10344c0092ff07008084fb008a8f54000100360035
:10345c008a0478000005eb0004003700bfff07006a
:10346c008a004400804878000a05e800890f55005e
:10347c00faff3900090078004f0578004f04be00b0
:10348c0000000600889fbe008a1f780000047800a8
:10349c000105780086ff07008084fb008a8f5400aa
:1034ac00010036008a0478000005eb0004003700a8
:1034bc000a00440010407800c4ff07000a05e80029
:1034cc00890f5500faff3900090078004f05780084
:1034dc004f04be0000000600881f78006bff070039
:1034ec000044780072ff0700804078004000200004
:1034fc000804e0000400320010002000e94f5400e2
:10350c0001003200200020000104e0000300320022
:10351c00e9cf500004003a00020037000030a00050
:10352c00010037000040a0004f04780000000600a6
:10353c002e10b4008000eb00010037008100e80081
:10354c006909b8000201500053162100830f510085
:10355c00faff3e0012407800000006004bff070007
:10356c000080fb000000e9008dff370050ff0700d2
:10357c00fbff370090118000000006004cff070095
:10358c00804078000000eb000104e00009003200ec
:10359c00a08180003210e30004003600918180008d
:1035ac008100e90000805000000006003210b500d8
:1035bc00680040000000060034ff070080407800df
:1035cc000000eb000104e0000a0032007081800072
:1035dc003010e30004003100818180000000e9001c
:1035ec00010050000000060081818000680040004e
:1035fc00010050000000060055ff370031e2a90021
:10360c003342a900000006008080500000c0eb008f
:0c361c00f20f2000828f5000000006001a
:020000040000fa
:10362800701100001000000080000000461000002b
:103638000200000082000000f78f00004810000020
:1036480002000000800000004a1000000200000094
:1036580080000000861100000200000080000000c9
:103668004c100000020000008000000088110000db
:10367800020000008000000000110000200000008f
:10368800800000004e1000000200000082000000d0
:10369800ffff00002011000014000000800000005f
:1036a800001000000e00000080000000341100002f
:1036b80014000000800000000e1000000e00000042
:1036c8008000000048110000140000008000000085
:1036d8001c1000000e000000800000005c110000bb
:1036e80014000000800000002a1000000e000000f6
:1036f800800000008a110000020000008000000025
:10370800a210000032000000800000003810000005
:103718000e00000080000000501000005200000061
:10372800820000003031320033343500363738003b
:1037380039414200434445004600300031323300ed
:1037480034353600373839006162630064656600d5
:1037580000286e00756c6c00290000000100000054
:10376800000a00000000640000000000e8030000f8
:10377800001027000000a0008601000040420f0052
:103788000080960098000000e1f5050000ca9a0044
:103798003b000000d41000002c0000008200000054
:1037a80081110000008111000900000000020000e2
:1037b800000083001100000083110e0002010000c8
:1037c80000000000000000000000000000060200e9
:1037d8000200000000000000d4100000801100006a
:0c37e8000600000080000000000000004f
:020000040000fa
:1037f400042eef0080202000a070880030002000fc
:1038040020718800342eef00442eef00542eef0078
:10381400000420002073880030b12100007088006b
:10382400701d2e0080708800c0d32b0000718800aa
:10383400001020008071880000002f0000728800b2
:103844001000200080728800003820000073880077
:103854000c2eef001c2eef002c2eef003c2eef0060
:103864004c2eef005c2eef006c2eef000a2eef00c2
:103874001a2eef002a2eef003a2eef004a2eef0008
:103884005a2eef006a2eef00062eef00162eef00e0
:10389400262eef00362eef00462eef00562eef00b8
:1038a400662eef0031a120007170880031182000cd
:1038b400f1708800c1832000717188000100230029
:1038c4007172880070738800f00b20004207b60004
:1038d400630420007405200031000700f10f2c0060
:1038e400003480000081600000b0210002007000fc
:1038f4000034880000fc2f008a06b6000000a000f7
:1039040050348800f20f280005358000050161005d
:1039140000802300020070000035880000f82f00aa
:10392400c536800005016000c201b300c2368800bc
:103934002536800005016000e205b30022368800c8
:103944001535800005016000d203b30012358800ec
:103954003536800005016000f205b3003236880078
:10396400a23480008282600002d02100050171002f
:10397400a234880055348000858060000130b30093
:1039840051348800d606b6002002b300b036880051
:10399400103a80000060a00001000700000006004b
:1039a4002174200083487800844878008048780097
:1039b40000000600889fbe008a9fbe008004780035
:1039c4000044eb00050037000a8544001a407800e3
:1039d40041808400010001000844e8000885fb00e0
:1039e4008005eb00090078007ef80700800f550081
:1039f400818f5d00f4ff39004f05be004f04be0007
:103a040000000600881f78000004eb000500370062
:103a1400881f780080f92800801f78001ef80700ae
:103a2400e48757000804e800e40f5400f8ff3a0064
:103a34004f04780000000600889fbe008a9fbe00e5
:103a440090fa2800801f780013f807008f87e90098
:103a540060808400000001000004e000fcff3200ec
:103a640000172100070009000018eb000004eb0018
:103a740030808400000001000a1721008005eb005b
:103a84008a00440080487800ea4f50000400320065
:103a94000804e800f00f5400f5ff3a000004eb00be
:103aa40070fe2800801f7800fbf707008f87e9006d
:103ab4008004eb00040037000a8044001080fb00ff
:103ac40055f807008904e800888f5400faff350090
:103ad4004f05be004f04be00000006003082800087
:103ae400b4ff0700c7ff0700d3ff070030ff28001b
:103af400801f7800e8f707008f87e90000000600c0
:103b0400f00b20004207b60061042000720520007b
:103b14004900070000f82f00bc06b6008004b3007b
:103b2400e0358800f30f2800e035800080816100d3
:103b340000a0230003007000e0358800103a8000e4
:103b44000060a0003c0007006507a8006147a900c9
:103b5400c1e1a900f0cf2f00c021b600c1a1a80087
:103b6400f0f82f00c021b600f03f2e00c021b600af
:103b7400c061a800c041a900c0ff2f00c021b60049
:103b8400c3c1a800f07f2c00c201b60000c0a00091
:103b9400100e8800f09f2f00c221b600c301a900b7
:103ba400c2e1a900c2c1a900c281a900c2a1a900a1
:103bb400c3e1a800c421ef00e021ef00e221ef00ff
:103bc400de21ef00ca21ef00cc21ef00d821ef0065
:103bd400d621ef00ca21ef00c621ef00c1e1a80001
:103be40000000600510e8800300e88000000060018
:103bf400320e8000510e80000200780000000600a2
:103c0400fbff3700faff07004e09dd004200de002b
:103c140000007100c208de0000000600f8ff070083
:103c24000001be004e1add004210de0000007200ea
:103c3400c298de0000000600237420008149780049
:103c44008249780080497800000006004f00de00b9
:103c54000000060001002400010060000000ea00ea
:103c6400faff37004900de00610060000000060032
:103c74004700de00fcff37004600de00faff370095
:103c84004400de00f8ff37000080ea004007b60079
:103c9400003a880000000600003a80000000060098
:103ca400881f7800fcff07000004780008007800f3
:103cb400e6ff07000004e0000200320000002800d4
:103cc400f1ff070008007800e2ff07000004e000ad
:103cd4000200320000002400ebff07000800780017
:103ce400e0ff07000004e000020032000020200092
:103cf400e5ff070008007800ddff07000004e0008e
:103d04000200320000082000dfff070008007800ee
:103d1400d9ff07000004e000020032000004200084
:103d2400d9ff070008007800d5ff07000004e00071
:103d34000200320000012000d3ff07004f04780086
:103d4400000006004027ef0000000600f28f2f005d
:103d540001438000010061000080a000004388004e
:103d6400f0ff2800734280008300600001c0a000bf
:103d74007142880074428000840061000180a000c8
:103d840071428800f1f82f00444380008481600070
:103d94000340a00043438800444380008401600042
:103da40003c0a00043438800434380000301610033
:103db4000280a00042438800544380000401600054
:103dc40002c0a00052438800634380000381600066
:103dd4000240a0006243880082ff2f0064438000f9
:103de400840161000300a000634388000443800051
:103df400848160000340a0000343880034428000b3
:103e0400840161000300a000334288002442800042
:103e14008401600003c0a000234288005342800054
:103e2400030161000200a000524288007442800035
:103e3400848060000140a000714288005808b600e8
:103e440000c0a000c0428800000006000000060078
:103e5400b0098800c109880000000600c00980007c
:103e6400b20980008000780002007800000006009b
:103e740091098800800988000000060082098000fa
:103e840091098000f8ff37002688a9006082880025
:103e94002688a800000006003421ef00c04220005c
:103ea400c00988003021ef0000d82100b009880043
:103eb40080002800d00988004c10e20002003a007b
:103ec40020342100f0ff07000688a9002688a800f6
:103ed400601821000048eb00000006006018210073
:103ee4000048eb002688a8003be1a800000006007b
:103ef4003be1a9002688a900000006006118210002
:103f0400114078000004e000010032008048eb001a
:103f140000000600701821001080fb00000006005d
:103f240070182100ebff37000a21ef0080572000b2
:103f3400700888000000280090088800801821007c
:103f4400210037000108ab00060032009018210060
:103f54001048e80011c0b3000000e90001487800ef
:103f64000108a9000000060070088800f3ff37006c
:103f7400700880000000060050088800efff37003a
:103f84005008800000000600801821000048eb0063
:103f940013e1a8000000060013e1a90000000600d8
:103fa40081182100114078000004e0000100320073
:103fb4008048eb0000000600901821001080fb00f0
:103fc40000000600901821000048eb0000000600e5
:103fd4000021ef0070b521001008880000002800bf
:103fe40020088800a0182100210037000068ab00d9
:103ff40006003200b01821001048e80011c0b300d8
:104004000000e900014878000068a90000000600eb
:1040140010088800f3ff3700100880000000060035
:1040240000088800efff3700000880000000060049
:10403400a01821000048eb0005e1a80000000600dc
:1040440005e1a90000000600a11821001140780034
:104054000004e000010032008048eb00000006008c
:10406400b01821001080fb0000000600b0182100e9
:104074000048eb000000060000002300203a8800fe
:104084004827ef004e27ef0040042000303a880014
:1040940060a7ef0062a7ef00b07a2f00203b8800f2
:1040a400c0022000303b88006a27ef006c27ef0035
:1040b400a109200032002000800720003374200072
:1040c4008049780081497800824978007105200090
:1040d400120020006004200023742000804978002e
:1040e40081497800824978004207ab00feff3a001c
:1040f40042a7ab00feff32000000060000000600ed
:10410400408288000000060040442800001b88000c
:104114006223ef0030e62000201b88006823ef00b4
:1041240010002000701b880000b02100801b880054
:104134007223ef006623ef0000082200f0ff37002f
:1041440002a8ab0005003200408280000000e000bd
:10415400010032000000010002a8a90000000600ce
:10416400c3e8a800000000000000000000000600f2
:10417400200f20004400b6000050a0002002880058
:10418400000006009afd0700bbff0700effe0700d2
:10419400ddff0700abf9070090fa070030000700c5
:1041a4005afc07003cff070072fb070007000700ea
:1041b4005dff070086ff0700e9ff0700ecff3700fb
:1041c40000000600508288000000060040442800d9
:1041d400001988002223ef0030e62000201988000f
:1041e4002823ef002e23ef00f00020008019880020
:1041f4003223ef002623ef00200e2200f1ff3700c8
:1042040001a8ab0005003200508280000000e000ed
:10421400010032000000010001a8a900000006000e
:020000040000fa
:10422400f03fb1000180b10006003500ee03090043
:1042340000000000403fb1000180b100fbff3d00e1
:104244001000b000203fb0000200350000800900db
:0842540000000000000006005c
:020000040000fa
:10425c0000000600000006000288a900c228a80081
:10426c002288a80003a8a900c248a80023a8a80077
:10427c000000060000102100800778007800400044
:10428c00000188000000060070828800ffff3700e4
:020000040000fa
:02000004000af0
:04afe000ceff0000a0
:020000040000fa
:02000004000af0
:04afe400efff00007b
:020000040000fa
:02000004000af0
:04afe8007fff0000e7
:020000040000fa
:02000004000af0
:04afec0019ff000049
:020000040000fa
:02000004000af0
:04aff000f8ff000066
:020000040000fa
:02000004000af0
:04aff400ffff00005b
:00000001FF
